:020000040800F2
:10000000400B00200101000827320008F5260008F7
:1000100025320008750B00085F3C00080000000056
:10002000000000000000000000000000E3390008AC
:10003000770B000800000000E1390008E5390008EE
:100040001B0100081B0100081B0100081B01000820
:100050001B0100081B0100081B0100081B01000810
:100060001B0100081B0100081B0100081B01000800
:100070001B0100081B0100081B0100081B010008F0
:100080001B0100081B0100081B0100081B010008E0
:100090001B0100081B0100081B0100081B010008D0
:1000A0001B0100081B0100081B0100081B010008C0
:1000B0001B0100081B010008613A00081B01000831
:1000C0001B0100081B0100081B0100081B010008A0
:1000D0001B0100081B0100081B0100081B01000890
:1000E0001B0100081B0100081B010008DFF80CD0F1
:1000F00000F0B2FC004800474D460008400B0020CD
:100100000648804706480047FEE7FEE7FEE7FEE7B1
:10011000FEE7FEE7FEE7FEE7FEE7FEE75F3A0008E0
:10012000ED000008202A04DB203A21FA02F0002129
:10013000704721FA02F3D040C2F1200291400843F7
:100140001946704740EA01039B0703D009E008C93C
:10015000121F08C0042AFAD203E011F8013B00F88C
:10016000013B521EF9D27047D2B201E000F8012BD8
:10017000491EFBD270470022F6E710B513460A4627
:1001800004461946FFF7F0FF204610BD30B504467F
:100190000020034600E05B1C934203D2E05CCD5C90
:1001A000401BF8D030BDF0B480EA0102D40F420009
:1001B000B2EB410F02D20246084611464A0042D035
:1001C000C30DDDB2C1F3C752AD1A202D35DAC1F32C
:1001D000160141F4000204B15242C5F1200602FAB0
:1001E00006F12A411044B3EBD05F23D0C4B1012DF6
:1001F000A0EBC35009DCF0BC4FF0004202EAC3524E
:10020000DBB200F5000000F02DBB400000F1807073
:1002100000EBC350A0F1807040EAD170490009E0C2
:10022000490841EAC071A0EBC35000F50000400846
:1002300000EBC350F0BC00F00CBB6142012202EBAA
:100240004101001BF6E7F0BC704781F00041AAE7CE
:1002500080F00040A7E780EA010210B502F00043F9
:10026000400022D04A001FD0010E01EB1261C0F302
:100270005600C2F3560240F4000042F40002A0FB14
:10028000022000047F39140400D0401C50EA1240C0
:1002900001D44000491EC2B20C0604EBD010401C31
:1002A0004008802A02D003E0002010BD20F00100A9
:1002B000002900DA0020184310BD30B480EA0102A2
:1002C00002F0004530F0004221F0004013D090B120
:1002D000C30DD40DC2F31601C0F31600E41A41F4A5
:1002E000000140F400027D34914201D3641C00E01F
:1002F0004900002C02DA30BC002070474FF40000A7
:100300000023914201D3891A034340084FEA410177
:10031000F7D151B1914202D14FF0004105E002D234
:100320004FF0010101E06FF0010103EBC4502844DC
:1003300030BC00F08EBA2DE9FE4F804681EA030002
:10034000C00F0C46009021F0004123F00045B8EBAF
:100350000200A94105D24046214690461C460B4664
:10036000024623F00040104347D0270DC7F30A0090
:10037000C3F30A510290401A019040286BDAC3F38C
:10038000130040F4801B0098924620B10023D2EB6A
:10039000030A63EB0B0B01985946C0F1400250462B
:1003A00000F036FA06460D4650465946019A00F0CE
:1003B0003EFA10EB08006141002487EA115284EAFA
:1003C000E7731A4340D0009A62B3019A012A4FEAB8
:1003D000075215DC001B61EB02014FF0004202EAFC
:1003E0000752CDE90042001C41F5801132462B46F0
:1003F00000F093FA03B0BDE8F08F40462146F9E7DC
:10040000001B61EB0201001C41F5801300185B41E9
:100410002018A2F5001747EB030140EAD570B61982
:100420006D4111E06D084FEA360645EAC0754FEAA6
:100430000752001B61EB0201001C41F580114908C5
:100440004FEA30000019514132462B4603B0BDE857
:10045000F04F00F053BA0098012240000023D0EB87
:10046000020263EBE073009821464FEAE074B8EBB8
:10047000000061EB0401E9E783F000435BE781F0F2
:10048000004158E72DE9FE4F81EA030404F00044DF
:1004900021F0004100944FF0000B23F0004350EA9C
:1004A00001045ED052EA03045BD0C3F30A54C1F3E3
:1004B0000A552C44A4F2F3340194A0FB0254C1F376
:1004C000130141F48011C3F3130343F4801301FBC0
:1004D000024400FB034E840A970A44EA815447EA27
:1004E0008357A4FB076802958D0A05FB07854FEA31
:1004F000932C04FB0C542705029D4FEA065847EA4B
:100500001637B5EB08056EEB070C870E920E47EA1F
:10051000811742EA8312A7FB0201B6EB0B0164EBE1
:1005200000042B0D43EA0C335E1844EB1C50DA46F2
:100530005146E7FB0201C5F313044FEA0B3343EACC
:1005400014534FEA0432019C43EA0603A4F10C045D
:100550000294009CCDE900B400F0DFF903B0BDE8DF
:10056000F08F00200146F9E72DE9F04D81EA030400
:1005700004F0004B21F0004514464FF0000A23F030
:10058000004150EA050220D054EA01021DD0C5F313
:100590000A570246C5F31303C1F31300C1F30A5609
:1005A00040F4801543F48013A7EB0608101BD646D1
:1005B00008F2FD3873EB050002D308F1010801E0F1
:1005C00092185B41B8F1000F03DA00200146BDE844
:1005D000F08D00204FF48011064684460EE0171B74
:1005E00073EB050705D3121B63EB050306434CEAC7
:1005F000010C49084FEA300092185B4150EA0107AC
:10060000EDD152EA030012D082EA040083EA050128
:10061000084305D0101BAB4106D20122002306E09F
:1006200000224FF0004302E06FF0010253101AEB7A
:1006300006004CEB085110EB0A0041EB0B01BDE842
:10064000F04D00F05BB970B521F0004303430CD0CE
:10065000C1F30A550024D5EB040564EB0403D61757
:10066000AD1AB34102DB0020014670BD201841EBFA
:10067000025170BDC10F80EAE0700844CA0796239A
:10068000002100F0EFB80EB5C10F80EAE070084419
:10069000CA07002140F233438DE80E000A460B469C
:1006A00000F03BF903B000BD0EB540F233410291BA
:1006B0000021CDE900110A460B4600F02EF903B0E7
:1006C00000BD00F0004220F00040C10DC0F3160054
:1006D00040F400007F2901DA00207047962903DCEE
:1006E000C1F19601C84001E096398840002AF4D053
:1006F00040427047C1F30A5210B5C1F3130140F2F2
:10070000FF3341F480119A4201DA002010BD40F21B
:1007100033439A42A2F2334203DC5242FFF702FD16
:1007200010BD904010BD00F0004230F000400AD0F3
:10073000C10D01F56071C0F3160042EA0151C20813
:1007400040071143704700200146704730B5041E32
:1007500071F1000404DB4FF00044404264EB0101FE
:10076000141E73F1000405DB1C464FF00043524297
:1007700063EB04038B4208BF824230BD30B5041ED8
:1007800071F1000404DB4FF00044404264EB0101CE
:10079000141E73F1000405DB1C464FF00043524267
:1007A00063EB0403994208BF904230BD01F000435F
:1007B00030B421F0004150EA010206D00A0DA2F542
:1007C0006072C1F31301002A02DC30BC00207047C4
:1007D000440F44EAC104C100E01830BC00EBC25031
:1007E00000F037B830B50B46014600202022012426
:1007F00009E021FA02F59D4205D303FA02F5491BEF
:1008000004FA02F52844151EA2F10102F1DC30BD04
:10081000202A04DB203A00FA02F1002070479140C0
:10082000C2F1200320FA03F3194390407047202AB5
:1008300006DBCB17203A41FA02F043EAE07306E008
:1008400041FA02F3D040C2F1200291400843194618
:1008500070470029A8BF7047401C490008BF20F01E
:100860000100704710B4B0FA80FC00FA0CF050EAB6
:10087000010404BF10BC704749B1CCF1200421FA37
:1008800004F411FA0CF118BF012121430843A3EB32
:100890000C01CB1D4FEA00614FEA102042BF00203F
:1008A00010BC704700EBC35010440029A4BF10BC1B
:1008B0007047401C490008BF20F0010010BC704781
:1008C00010B541000CD0C0F3C751962908DC7E2931
:1008D00009DC06DB410204D000F0004040F07E500D
:1008E00010BD002010BDC1F19604C4F1200100FA32
:1008F00001F1E040FFF7ADFFA04010BD10B5141EA0
:1009000073F1000408DA401C41F1000192185B41C8
:100910001A4301D120F0010010BD2DE9F04D92469F
:100920009B4611B1B1FA81F202E0B0FA80F22032B6
:100930009046FFF76DFF04460F4640EA0A0041EA81
:100940000B0153465A46084313D0114653EA01009F
:1009500019D0C8F140025046FFF7E4FB05460E46A9
:10096000504659464246FFF753FF084305D0012041
:1009700004E020463946BDE8F08D0020054346EAF4
:10098000E0762C4337430A986305E40AA0EB08009D
:100990000022FD0A44EA47540A3002D500200146ED
:1009A000E9E7010510196941DDE9084500196941C8
:1009B000BDE8F04DA2E72DE9F04D00231A461B1AC1
:1009C0008A4103DB00200146BDE8F08DC1F30A52E5
:1009D000C1F3130141F480154FF0000BD10702D190
:1009E00000186D41521E0027044640F2FF113846A0
:1009F00001EB620A3E468046024600204FF4801119
:100A0000FFF790FBC2197141BB1846EB0100B4EB34
:100A1000030C75EB000C04D3E41A65EB00051746D4
:100A20000E46241908F101006D4180463428E3DDAB
:100A3000F91946EB0600091BA84103D24FF0FF321B
:100A4000134601E0002213461BEB070046EB0A5158
:100A5000BDE8F04DFFF752BF064C074D06E0E068D9
:100A600040F0010394E8070098471034AC42F6D3F5
:100A7000FFF740FB7053000890530008420005D078
:100A8000C0F3C7525242914201DC0020704700EB94
:100A9000C1507047962300221146FFF7E3BE0000C5
:100AA00070B5044600688168C943C90717D18168D9
:100AB00021F00101816000F0C5FC05460AE000BF9D
:100AC00000F0C0FC401B022804D920688068C043A5
:100AD000C00706D020688068C043C007F0D000205F
:100AE00070BDA06A40F01000A062E06A40F0010012
:100AF000E062012070BD0000F8B5002604460096B3
:100B000000688168C943C9072DD0816841F001019F
:100B10008160164816490068B0FBF1F000E0401E05
:100B200000900028FBD100F08DFC054616E000BFC8
:100B300000F088FC401B022810D920688068C04360
:100B4000C0070BD0A06A40F01000A062E06A40F03D
:100B50000100E06284F824600120F8BD206880680C
:100B6000C043C007E4D10020F8BD0000C000002051
:100B700040420F00FEE7704772B6FEE72DE9FF4FD7
:100B8000BBB0984617460846DDF820A1FFF7CBFD1D
:100B9000744C754D22462B46FFF774FC734E0022B1
:100BA0003346FFF7E1FCFFF701FE3A903846FFF7C6
:100BB000BAFD22462B46FFF765FC00223346FFF7BD
:100BC000D3FCFFF7F3FD39904046FFF7ACFD22461A
:100BD0002B46FFF757FC00223346FFF7C5FCFFF713
:100BE000E5FD0025CDF8E000614A05EB450020A9B0
:100BF00052F8203002EB800241F8203001EB8004F3
:100C0000576867609668A660DDF8E880404603F0A4
:100C1000BDFE3146FFF71FFB8146404603F058FCFE
:100C20003946FFF718FB4946FFF70FFB6060404667
:100C300003F04EFC3146FFF70EFB0646404603F03C
:100C4000A5FE3946FFF707FB3146FFF7ACFAA06077
:100C5000399F06463846D4F8009003F097FE314697
:100C6000FFF7F9FA8046384603F032FC4946FFF7B1
:100C7000F2FA4146FFF797FA2060384603F086FE05
:100C80004946FFF7E8FA8046384603F021FC314632
:100C9000FFF7E1FA4146FFF7D8FAA060389FD4E9A0
:100CA0000098384603F072FE4146FFF7D4FA064634
:100CB000384603F00DFC4946FFF7CDFA3146FFF701
:100CC000C4FA2060384603F003FC4146FFF7C3FA3C
:100CD0000646384603F05AFE4946FFF7BCFA31464D
:100CE000FFF761FA606007466846DDE9498900EB75
:100CF000850000F1600B51462068FFF7ACFAFFF762
:100D0000E0FC404460F30F0638465146FFF7A3FA73
:100D1000FFF7D7FC484460F31F466D1CCBF800601A
:100D2000082DFFF661AF124A0020694612F16002F9
:100D300002EB400412F8103001EBC00501EB830315
:100D400064781B6E2B6001EB8403401C1B6E6B6090
:100D50000C28EDDB802269463B98FFF7F3F93FB0A2
:100D6000BDE8F08F182D4454FB21094000806640F7
:100D7000F8510008FEB52026089C40258DE870003B
:100D8000FFF7FCFEFEBD0000F8B50024009490F8CB
:100D900024202546012A12D0012280F824204A6806
:100DA0001F23072A0DD20668776B521E02EB8202C0
:100DB00093409F430B6893401F43776319E00220E1
:100DC000F8BD06680D2A0AD2376BD21F02EB8202E9
:100DD00093409F430B6893401F43376309E0F76AD2
:100DE0000D3A02EB820293409F430B6893401F43EE
:100DF000F7620A68072306680A2A0AD3F7680A3ADC
:100E000002EB420293409F438B6893401F43F7607D
:100E100008E0376902EB420293409F438B6893409E
:100E20001F4337610A68102A01D0112A20D1124BC2
:100E300002689A4217D193681B0219D4936843F44D
:100E4000000393600968102912D10C490C4A096803
:100E5000B1FBF2F101EB8101490000E0491E009174
:100E60000029FBD104E0816A41F020018162012464
:100E700080F824502046F8BD00240140C000002026
:100E800040420F000068C06C704700002DE9F0413F
:100E90004FF0000704003D467ED0A06A002628B926
:100EA000E66284F82460204600F07EF82046FFF7D2
:100EB000F7FDA16A01F01001014304D0A06A40F0DF
:100EC0001000A06268E0A16A21F4885141F002019B
:100ED000A1626268E169237B0A4347EA43010A434E
:100EE000A1684FF48077B94208D0012906D00021CB
:100EF00094F814C0BCF1010F02D00AE03946F7E7BC
:100F0000F3B1A36A43F02003A362E36A43F0010351
:100F1000E3622368D3F804C02CF4694C4CEA010C5A
:100F2000C3F804C023689968DFF870C001EA0C01B7
:100F300011439960A168B9420BD0012909D00CE096
:100F4000DFF85CC0A3690CEB43330B4343F400614F
:100F5000DFE7218A0D05A5F580152168CB6A23F40A
:100F600070032B43CB62216889680E4B1940914274
:100F700008D1E662A16A21F0020141F00101A162FB
:100F8000BDE8F081A06A20F0020040F01000A062ED
:100F9000E06A40F00100E0620120F1E7FDF7E1FFC7
:100FA00000E0FFFFFE0E1FFF10B586B0002100918C
:100FB0000191029103911A4C03681A4903221A48BD
:100FC000A34211D18B6943F400738B618B6903F4E5
:100FD000007304938B6943F004038B61896901F00A
:100FE00004010491402113E0104CA34215D18B69F8
:100FF00043F480638B618B6903F4806304938B6992
:1010000043F004038B61896901F00401049180219C
:10101000CDE90012694600F01BF906B010BD0000D2
:101020000024014000100240000801400028014057
:101030002DE9F84300270D460446009700F002FA18
:10104000804620688168C90508D5A06A40F0200064
:10105000A06284F824700120BDE8F8834168C905C6
:1010600003D4C06A10F4700F2AD0022000F028FECA
:101070003B490968B1FBF0F62068036939490B4226
:101080004FEA61014FEAA1121FD1C3684FEA611C08
:1010900013EA0C0F19D103690B4225D1C068104225
:1010A00022D1142023E0681C0AD02DB100F0CAF927
:1010B000A0EB0800A84203D920680068800725D566
:1010C000206800688007EED52DE003690B4202D14D
:1010D000C168114206D0026923490A4206D1C0689C
:1010E000084203D1542002E0292000E0FC204643BE
:1010F000009816E0681C11D02DB100F0A3F9A0EB08
:101100000800A8420AD90098B04207D2A06A40F06D
:101110000400A06284F8247003209DE70098401C1E
:101120000090B042E6D321686FF012000860A06A18
:1011300040F40070A06220688068C0F34240072835
:101140000CD1207B50B9A06A20F48070A062A06A04
:10115000C00403D4A06A40F00100A06200207BE735
:10116000C0000020244992244992240070B504460E
:1011700090F8240001280DD0012084F82400204696
:10118000FFF7BAFC02004FF0000005D084F82400FD
:10119000104670BD022070BDA16A40F20123994340
:1011A00041F48071A1621F4D23681F49AB4218D1E1
:1011B0000E6816F4702F14D0A66A46F48016A66244
:1011C0000E68760505D5A66A26F4005646F48056C4
:1011D000A662A66AF6040AD5E66A26F00606E66264
:1011E00006E0A66A26F48016A6625E68E9E7E06279
:1011F00084F824006FF00200186020688368C3F34D
:101200004243072B05D1A84208D1096811F4702F79
:1012100004D0816841F480118160B9E7816841F4AC
:10122000A001F9E7002801400424014070B50446FC
:1012300000F008F90546601C02D004480078044418
:1012400000F000F9401BA042FAD370BDB4000020AA
:101250002DE9F84FDFF8B8910024A9F1040B2346DB
:101260000F2709F1040AABF1040EC9E00125A540DE
:101270002A40AA427DD1674ED1F804C0ACEB0608E3
:10128000B44532D014DCBCF1030F3AD009DCBCF118
:10129000000F2AD0BCF1010F1CD0BCF1020F31D1DC
:1012A0001DE0BCF1110F17D0BCF1120F2AD119E0CB
:1012B000B8F5881F19D006DCB8F5803F15D0B8F511
:1012C000801F1FD111E0B8F5001F0ED0B8F5041F24
:1012D00018D10AE0CB6815E0CB681B1D12E0CB6883
:1012E00008330FE0CB680C330CE08B682BB1012B7B
:1012F0004FF0080303D0456104E0042302E00561D8
:1013000000E00023FF2A01D8064601E000F10406B0
:101310004FEA840501D9A5F12005D6F8008007FA27
:1013200005FC28EA0C0803FA05F548EA0508C6F8A2
:1013300000804D68ED0062D5374DAE6946F001067C
:10134000AE61AD6924F0030605F001050095334D4B
:1013500006EB050CDCF80850A607360F07FA06F86E
:1013600025EA0805DFF8B880404503D14FF00008B2
:1013700017E044E0DFF8AC80404502D14FF00108AF
:101380000FE0DFF8A480404502D14FF0020808E0EA
:10139000DFF89880404502D14FF0030801E04FF09C
:1013A000040808FA06F848EA0508CCF808804D68F1
:1013B000D9F80060ED024D4601D5164300E0964392
:1013C0002E604D68DAF80060AD02554601D516432F
:1013D00000E096432E604D68DBF80060AD035D468B
:1013E00001D5164300E096432E604D68DEF800609C
:1013F000ED03754601D5164300E096432E60641C4C
:101400000D682A46E5407FF431AFBDE8F88F000053
:1014100008040140000011100010024000000140CB
:1014200000080140000C0140001001400014014080
:101430008068084000D0012070470AB10161704700
:101440000904FBE70148806870470000B4000020F1
:1014500070B5040025D094F83D00002520B984F82B
:101460003C50204600F014FB242084F83D00206806
:10147000016821F0010101602068016841F4004128
:1014800001602068016821F40041016000F096FDD0
:101490004D4A6168914201D84C4900E04C4988426C
:1014A00001D2012070BD4B492368B0FBF1F15E68A9
:1014B00026F03F060E435E606368934206D94FF400
:1014C000967359434FF47A73B1FBF3F12368491CC7
:1014D0001E6A26F03F06314319626168914210D8B6
:1014E0004900401EB0FBF1F2521CC2F30B02042A69
:1014F00001D2042022E0B0FBF1F0401CC0F30B004D
:101500001CE0A268F2B301EBC10303EB0116431E1A
:10151000B3FBF6F35B1C43F480431B0549D092B345
:1015200001EBC10202EB0111401EB0FBF1F0401CC7
:10153000C0F30B0040F4804040F400402168CA69C9
:101540004CF6FF739A431043C861D4E90710014376
:101550002068026822F0C00211430160D4E903014F
:1015600001432068826848F2FF339A431143816047
:10157000D4E9050108432168CA6822F0FF0210433C
:10158000C86001E00EE016E02068016841F001014A
:1015900001602564202084F83D00256384F83E50D6
:1015A000002070BD01EB4106431EB3FBF6F35B1C4C
:1015B000B3E70120C2E701EB4101401EB0FBF1F0AF
:1015C000401CC0F30B00B7E7A086010080841E001A
:1015D00000093D0040420F002DE9F84F1F4690469C
:1015E0008A460446DDF82890FFF72CFF054694F85C
:1015F0003D0020287FD11923012240492046009533
:1016000001F0DCF9002876D194F83C00012872D072
:10161000012084F83C0020680168C90703D10168F3
:1016200041F0010101602068016821F4006101605E
:10163000212084F83D00102084F83E000026266416
:10164000C4F824806785608D20852D48E0622B4694
:101650004A465146204601F065F890B92068416934
:101660008069009036E02A464946204601F084FA17
:1016700050B1206C042804D12068016841F4007145
:1016800001600120BDE8F88F606A21680078086178
:10169000606A401C6062618D491E6185218D491E12
:1016A00089B2218522685369DB435B070BD451B1B2
:1016B00000781061606A401C6062608D401E608529
:1016C000208D401E20852A464946204601F04AF9D1
:1016D0000028CED1208D0028C5D154F83D0B0168DB
:1016E00041F400710160202004F81E09E677667756
:1016F0000020C7E7FFE70220C4E700000200100057
:101700000000FFFF2DE9FF4F83B00025DDE91079D0
:101710009A4693460446DDF848800095FFF792FE0E
:10172000064694F83D0020287CD1192301228849DF
:101730002046009601F042F90028F5D194F83C00CB
:1017400001286FD0012084F83C0020680168C90797
:1017500003D1016841F0010101602068016821F4B2
:1017600000610160222084F83D00402084F83E00A2
:1017700025646762A4F82A90608D20857548E06230
:10178000CDE9008653465A462046049901F018F8E0
:1017900000287CD1208DDFF8C091202768B1012876
:1017A00014D00228206801681ED041F480610160D5
:1017B0002068416980690090BCE0206841698169C6
:1017C0000091016841F400710160B3E02068016894
:1017D00021F48061016072B62068416981690091DD
:1017E000016841F400710AE041F40061016072B6E1
:1017F0002068416981690091016821F4806101607C
:1018000062B697E0032865D801280CD00228434629
:101810004FF000024946204600960BD001F0CEF86A
:10182000A8BB0CE091E032464146204601F06CF93D
:1018300068BB72E001F0C2F848BB72B633E02068C2
:10184000016821F48061016072B620680069616AF4
:101850000870606A401C6062208D401E2085608D8B
:10186000401E60853D4846F2A8110068B0FBF1F0CB
:10187000C0EBC00000EB80000090401E009007D03D
:1018800020684069C04340070DD50098F5E727E080
:1018900044F8305F6773A573206940F02000206131
:1018A00062B625731CE02068016841F40071016094
:1018B00020680069616A0870606A401C6062218D5E
:1018C000491E2185618D491E618562B621680969BD
:1018D000017026E032464146204601F015F918B164
:1018E000012007B0BDE8F08F20680069616A0870C8
:1018F000606A401C6062208D401E81B22185608D2F
:10190000401E608520684269D243520712D40329E1
:1019100003D1016821F48061016020680069616A77
:101920000870606A401C6062208D401E2085608DBA
:10193000401E6085208D00287FF464AF84F83D70E0
:1019400084F83E5084F83C50CBE70220C9E7000001
:10195000020010000000FFFF04000100C000002092
:101960002DE9FF4F83B09A46DDE91197934604466F
:10197000DDF84080FFF766FD054694F83D0020281D
:101980007FD11923012240492046009501F016F825
:10199000002876D194F83C00012872D0012084F808
:1019A0003C0020680168C90703D1016841F00101CA
:1019B00001602068016821F400610160212084F841
:1019C0003D00402084F83E0000262664C4F82480B0
:1019D000A4F82A90608D20852C48E062CDE900753E
:1019E00053465A462046049900F068FF70B930E02B
:1019F0002A463946204601F0BFF858B1206C042829
:101A000004D12068016841F400710160012007B031
:101A1000BDE8F08F606A216800780861606A401C48
:101A20006062218D491E89B22185628D521E6285B8
:101A300022685369DB435B070BD469B100781061FE
:101A4000606A401C6062208D401E2085608D401EB3
:101A50006085208D0028CBD12A463946204600F0EB
:101A600081FF0028CAD154F83D0B016841F4007190
:101A70000160202004F81E09E67766770020C6E79B
:101A8000FFE70220C3E70000020010000000FFFF94
:101A900030B585B000210091019102910391214D53
:101AA0000368214C122103222048AB421DD1A369B7
:101AB00043F00803A361A369039203F008030493AE
:101AC0001302CDE900316946FFF7C2FB18484168AF
:101AD00041F0E06141F002014160E06940F4001032
:101AE000E061E06900F4001019E0124DAB4217D13B
:101AF000A36943F00803A361A369039203F00803F9
:101B000004934FF44063CDE900316946FFF7A0FB31
:101B1000E06940F48000E061E06900F48000049036
:101B200005B030BD0054004000100240000C0140E0
:101B300000000140005800400248816802781144CA
:101B400081607047B4000020074810B5016841F07B
:101B500010010160032000F0A1F80F2000F006F84A
:101B600000F050F8002010BD0020024030B50546BE
:101B70001F4887B0C16941F00401C161C06906A96D
:101B800000F00400009001A800F0F8F90498B0B14A
:101B900000F014FA40001749174AB0FBF1F117485A
:101BA000491E0260416040F2E7320021C0E9032192
:101BB0008160816100F0DAFB040003D015E000F0E1
:101BC000FDF9E8E70D4800F0FFFB04000DD11E20F1
:101BD00000F036F8102D07D2002229461E2000F012
:101BE0003DF80748056000E0012407B0204630BDFD
:101BF0000010024040420F0000080040F80600209C
:101C0000B80000200C4808B5816941F001018161EC
:101C1000816901F001010091C16941F08051C16108
:101C2000C06900F0805000900448416821F0E061F4
:101C300041F00071416008BD001002400000014009
:101C4000002809DB00F01F020121914040098000BB
:101C500000F1E020C0F8001170470000F0B40E4B16
:101C60001B680C46C3F30223C3F10705042D00D9FA
:101C70000425191D072901D2002300E0DB1E0126DF
:101C800006FA05F1491E214099409E40761E1640F5
:101C90003143F0BC02F039B80CED00E0064900F029
:101CA000070208684FF6FF03184040EA0220034A83
:101CB00010430860704700000CED00E00000FA05DA
:101CC00010B501460020234C012922D0022939D029
:101CD00010291DD161682268D20119D51E48C1F3AF
:101CE0008342C903805C0AD561681B4AC1F3404145
:101CF000921E515C194AB2FBF1F1484301E01849C8
:101D000048436168490203D440000321B0FBF1F06D
:101D100010BD226AC2F30121012903D1920701D526
:101D2000C80310BD022905D1626A920702D549F69F
:101D3000404010BD0329FCD121688903F9D54FF239
:101D4000244010BD00F04AF96168C1F38131491C9B
:101D50004900DBE7001002408452000800127A00BC
:101D600000093D002DE9F84305460078354CC007D1
:101D700054D0E0690026C00008D4E06940F08050EB
:101D8000E061E069012600F0805000902E48016873
:101D9000C90512D40168804641F480710160FFF7E3
:101DA00051FB074605E000BFFFF74CFBC01B642852
:101DB00023D8D8F80000C005F6D5206A10F440708A
:101DC00021D0A98801F4407181421CD0206A1F49AA
:101DD000012220F440700A6000220A602062C007DD
:101DE00011D0FFF72FFB074641F2883808E000BF0B
:101DF000FFF728FBC11B414502D90320BDE8F8834A
:101E0000206A8007F4D5206A696820F4407008438E
:101E100020621EB1E06920F08050E06128788007E0
:101E200005D56068A96820F44040084360602878C0
:101E3000C00605D56068E96820F48000084360604A
:101E40000020DBE7001002400070004040044242E6
:101E50002DE9F0470F46050061D0434E306800F091
:101E60000700B84209D2306820F0070038433060DC
:101E7000306800F00700B84251D128683B4C810718
:101E800012D5400703D5606840F4E06060602878B0
:101E9000000703D5606840F4605060606068A9681E
:101EA00020F0F000084360602878C00728D06868F8
:101EB000012810D02168022810D0890700292EDAC5
:101EC000616821F0030101436160FFF7BBFA8046BE
:101ED00041F288390DE021688903EFE78901EDE7D8
:101EE000FFF7B0FAA0EB0801494502D90320BDE88D
:101EF000F0876068696800F00C00B0EB810FEFD1EB
:101F0000306800F00700B8420BD9306820F00700B5
:101F100038433060306800F00700B84201D001203B
:101F2000E5E72878400705D56068E96820F4E060B7
:101F3000084360602878000706D56068296920F4A6
:101F4000605040EAC100606000F058F86168084ADB
:101F5000C1F30311515CC840064908600648006897
:101F6000FFF704FE0020C2E70020024000100240FC
:101F700094520008C0000020B80000200F22026028
:101F80000C4A536803F003034360536803F0F00303
:101F90008360536803F4E063C36052684FF4E06306
:101FA00003EAD20202610448006800F007000860FA
:101FB000704700000010024000200240044805491C
:101FC00000684968044AC1F30221515CC840704767
:101FD000C000002000100240A45200080448054937
:101FE00000684968044AC1F3C221515CC840704787
:101FF000C000002000100240A45200080E4A5168A0
:102000000E4801F00C03042B11D0082B0FD10C4803
:10201000C1F38343C903C05C0AD55168084AC1F3C0
:102020004041921E515C054A5043B0FBF1F07047AD
:1020300004494843704700000010024000127A0033
:102040007252000800093D002DE9F84F040070D0DD
:102050002078C04DC00749D06868C0F381000128CE
:1020600007D06868C0F38100022809D16868C003FE
:1020700006D52868800339D560680028E7D035E0A8
:102080006068B0F5803F0BD010B1B0F5A02F11D033
:10209000286820F480302860286820F4802002E03E
:1020A000286840F480302860606890B1FFF7CAF972
:1020B00006460AE0286840F480202860F0E700BF68
:1020C000FFF7C0F9801B642873D828688003F7D510
:1020D0000CE0FFF7B7F9064605E000BFFFF7B2F9DD
:1020E000801B6428F0D828688003F7D420789A4EA3
:1020F00080074FF001094FF0000839D5686810F0EB
:102100000C0F07D06868C0F38100022809D1686805
:10211000C00306D42868800714D52069012808D197
:1021200010E02069B0B1C6F80090FFF78BF90746C0
:1021300005E00AE1FFF786F9C01B0228C4D8286829
:102140008007F7D52868616920F0F80040EAC100EF
:1021500028600DE0C6F80080FFF774F9074604E038
:10216000FFF770F9C01B022823D828688007F7D42E
:10217000207800072CD57948A169D9B1C0F8009022
:10218000FFF760F9074604E0FFF75CF9C01B02287F
:102190000FD8686A8007F7D571484FF4FA51006884
:1021A000B0FBF1F0009000BF0098411E0091FAD200
:1021B0000EE080E0C0F80080FFF744F9074604E035
:1021C000FFF740F9C01B022875D8686A8007F7D46A
:1021D0002078400760D5E8690027C00008D4E86986
:1021E00040F08050E861E869012700F080500090DD
:1021F0005C480168C90513D40168834641F48071C5
:102200000160FFF71FF9824606E000BFFFF71AF9E9
:10221000A0EB0A0064284ED8DBF80000C005F5D515
:10222000E06801280AD008B1052813D0286A20F0F8
:1022300001002862286A20F0040002E0286A40F0C9
:1022400001002862E06841F2883B98B1FFF7FAF894
:1022500082460BE0286A40F004002862EEE700BFE7
:10226000FFF7F0F8A0EB0A0159455AD8286A800711
:10227000F6D50CE0FFF7E6F8824605E0FFF7E2F856
:10228000A0EB0A0159454CD8286A8007F6D41FB143
:10229000E86920F08050E861E06988B36968C1F3BB
:1022A0008101022944D00228C6F8608004D0FFF7DB
:1022B000C9F8044638E034E0FFF7C4F8074604E004
:1022C000FFF7C0F8C01B02282BD828688001F7D47C
:1022D000206AB0F5803F05D16868A16820F400301D
:1022E00008436860D4E908010843696821F474115F
:1022F00008436860C6F86090FFF7A4F8044606E05B
:1023000025E000BFFFF79EF8001B022809D82868C7
:102310008001F7D51BE000BFFFF794F8001B0228EF
:1023200002D90320BDE8F88F28688001F4D40EE0BC
:102330000128F7D06868226A00F48031914204D104
:10234000616A00F47010884201D00120EAE70020A1
:10235000E8E70000001002400000424280044242D0
:10236000C0000020007000407047704710B50400A6
:1023700003D094F83D0010B107E0012010BD00200B
:1023800084F83C00204600F01EF8022084F83D004E
:10239000211D206801F06AFB012084F8460084F8C2
:1023A0003E0084F83F0084F8400084F8410084F83F
:1023B000420084F8430084F8440084F8450084F81F
:1023C0003D00002010BD704790F83D10012901D05C
:1023D00001207047022180F83D100168CA6842F070
:1023E0000102CA6000680B49884208D0B0F1804FF2
:1023F00005D00949884202D00849884204D1816841
:1024000001F00701062903D0016841F001010160D4
:1024100000207047002C01400004004000080040EC
:1024200070472DE9F04104460068C66805694FF021
:102430000007A90713D5B10711D5F91E01610120C5
:102440002077206880698007204602D0FFF7E8FFE8
:1024500004E000F07EF8204600F07CF8277768075B
:1024600016D5700714D521686FF0040008610220AA
:1024700020772068806910F4407F204602D0FFF763
:10248000CFFF04E000F065F8204600F063F82777FE
:10249000280715D5300713D521686FF008000861AB
:1024A000042020772068C0698007204602D0FFF70B
:1024B000B7FF04E000F04DF8204600F04BF8277716
:1024C000E80616D5F00614D521686FF010000861F3
:1024D000082020772068C06910F4407F204602D091
:1024E000FFF79EFF04E000F034F8204600F032F8D9
:1024F0002777E80708D0F00706D021686FF00100C1
:102500000861204600F028F8280608D5300606D5D0
:1025100021686FF0800008612046FFF725FF6806FC
:1025200008D5700606D521686FF040000861204686
:1025300000F01CF8A8060AD5B00608D521686FF08F
:10254000200008612046BDE8F041FFF70EBFBDE85E
:10255000F08170477047000000680349884201D14C
:10256000FFF7EABA7047000000080040704770B5F6
:10257000040004D094F84100002510B106E00120C9
:1025800070BD84F84050204600F024F8242084F8E0
:1025900041002068C16821F40051C160204601F06B
:1025A000C9FA2068016921F49041016120684169FC
:1025B00021F02A0141612068C16841F40051C160E5
:1025C0006564202084F8410084F84200656300209F
:1025D00070BD000030B585B00024009401940294D1
:1025E00003940068174988422AD11748816941F449
:1025F00080418161816901F480410491816941F0E8
:10260000080181618069114D00F0080004904020AC
:102610000090022001900320039069462846FEF7AF
:1026200017FE8020CDE90004694628460294FEF793
:102630000FFE0748416841F0E06141F0040141604C
:1026400005B030BD0038014000100240000C0140D0
:10265000000001402DE9F843044690F841009846F7
:1026600016460D46202802D00220BDE8F88385B129
:102670007EB100206064212084F84100FEF7E2FE74
:10268000A6848146E684A0682027B0F5805F02D04A
:1026900003E00120E9E7206910B12E4600250EE095
:1026A00000260CE08021204601F0A0FAA8B9C6B1AE
:1026B00016F8010B21684860E08C401EE084E08C35
:1026C0004B464FF00002CDF800800028EAD14FF0D1
:1026D0004001204601F08AFA40B184F8417003209D
:1026E000C3E735F8020BC0F30800E3E784F8417054
:1026F0000020BAE7FEE701684A69D24352050FD4C9
:102700006FF480624A61002140F8301F202242733A
:102710008173026942F00402026101730120704773
:1027200000207047F8B50446C06A1E460D4617469D
:10273000082807D0012805D010F5803F02D0206B73
:10274000122804D12068016841F4807101601346A9
:1027500000224FF001112046009600F02FF940B101
:1027600020680068C00502D54FF400702064032083
:10277000F8BD2069B0F5804F0ED00620216800EA30
:10278000D51040F0F000086133463A460B49204628
:1027900000F05CF978B902E005F0FE0000E0E8B274
:1027A00021680861054933463A46891F204600F0F2
:1027B0004DF90028DCD00120F8BD00000800010020
:1027C0002DE9F84F0446006889460B9D016898463C
:1027D000174641F4806101602068016841F480710E
:1027E000016000954FF0011B0022594620460A9BCC
:1027F00000F0E4F84FF4007A40B120680068C005AA
:1028000001D5C4F840A00320BDE8F88F216809F085
:10281000FE0008612B46284920460A9A00F016F966
:10282000F0BB20684169806900902A4620460A99D9
:1028300000F0A2F940B1206C04283AD12068016868
:1028400041F40071016034E0FEB2B8F1010F09D02B
:102850002168380A08612A4620460A9900F08CF956
:102860000028E8D1206806612A4620460A9900F02F
:1028700083F90028DFD12068016841F4807101608C
:1028800000950022594620460A9B00F097F8002840
:10289000B3D1216809F0FF0040F00100086100E0B9
:1028A00007E02B46044920460A9A00F0CFF800289A
:1028B000AAD00120A8E70000020001002DE9F8439A
:1028C000044600680D46DDE90897016898461646FB
:1028D00041F4807101604B4600224FF00111204607
:1028E000009700F06BF848B120680068C00502D579
:1028F0004FF4007020640320BDE8F883216805F0E0
:10290000FE0008613B464A461549204600F09EF805
:1029100088B920684169806900903A464946204656
:1029200000F02AF948B1206C042804D1206801681D
:1029300041F4007101600120DEE7F5B2B8F1010F4A
:1029400009D02168300A08613A464946204600F01D
:1029500013F90028E7D1206805610020CCE70000CA
:102960000200010070B516460D4604461EE02046E2
:10297000FFF7C1FE08B1012070BD681C16D0FEF73C
:1029800061FD801BA84200D885B920684069C0431A
:1029900040070BD5002044F8300F20216173A0734D
:1029A000216941F0200121612073E4E7206840693A
:1029B000C0434007DBD4002070BD00002DE9F04784
:1029C000984617460D460446C1F30746DDF82090A9
:1029D0002AE000BFB8F1FF3F26D0FEF733FDA0EBA1
:1029E0000901414502D8B8F1000F1DD12068012E20
:1029F00016D0806925EA00000004000C12D00020E7
:102A0000B84211D1002044F8300F20216173A07327
:102A1000216941F02001216120730120BDE8F08788
:102A20004069E7E70120EBE72068012E0AD08069C2
:102A300025EA00000004000C06D00020B842C9D0EE
:102A40000020EBE74069F3E70120F7E72DE9F047C5
:102A5000984616460D4604464FF000094FF0200AEE
:102A6000C1F3074723E020684069C043400515D4FF
:102A70002068016841F40071016021686FF4806092
:102A80004861C4F8309084F83DA084F83E90216CF1
:102A900041F00401216484F83C9021E0701C06D0D0
:102AA000FEF7D0FCA0EB0800B04203D816B1012F0E
:102AB0001FD021E02068012F15D0806925EA000091
:102AC0000004000C18D000BF44F8309F84F80DA01B
:102AD00084F80E90216941F02001216184F80C9066
:102AE0000120BDE8F087406925EA00000004000CE1
:102AF000EAD12068406901E02068806925EA000089
:102B00000004000CAFD1ECE72DE9F0410025904620
:102B10000E460446202728E04069C043C0060CD476
:102B200054F8301B6FF01000486144F81059677773
:102B3000A577206A2062257714E0FEF783FCA0EBDE
:102B40000800B04200D886B920684069C0434006FA
:102B50000BD544F8305F6773A573206940F02000FF
:102B6000206125730120BDE8F08120684169C943D7
:102B70004906D1D40020F6E770B516460D46044646
:102B80001EE02046FFF7B7FD08B1012070BD681CAC
:102B900016D0FEF757FC801BA84200D885B92068E4
:102BA0004069C04300060BD5002044F8300F2021B7
:102BB0006173A073216941F0200121612073E4E772
:102BC00020684069C0430006DBD4002070BD2DE9B9
:102BD000FF5F96B024AD044695E88301D4E908234D
:102BE00008930692FDF748FC3A464346FDF74AFC37
:102BF000D4E90623FDF79FFB07911290D4E910A3B7
:102C00005246384641460993FDF73CFCCDE90001A8
:102C1000D4E90C939B464A46FDF72EFCD4E90E23DB
:102C2000CDE90B32FDF728FCD4E90023FDF783FB47
:102C30003A464346FDF726FCD4E90A23FDF77BFB21
:102C400005460E46DDE900014A465B46FDF717FCE6
:102C50008B460490DDE90001DDE90B32FDF70FFC46
:102C60000D910090D4E902013A464346FDF70AFC73
:102C70005246099BFDF75FFBCDE90E01D4E9042321
:102C800028463146FDF757FB80468A4602460B46EA
:102C900028463146FDF768FC81460F4642465346BA
:102CA0000D990098FDF760FC80468A46DDE9180121
:102CB000079B129AFDF7E0FB0B914A463B461090AA
:102CC000FDF7E0FB079B129AFDF735FBC4E906010F
:102CD00007911290404651460B9B109AFDF7D2FB8C
:102CE000089B069AFDF727FBC4E9080104980690A3
:102CF0002A46334648463946FDF7C4FB2A46334642
:102D0000FDF7BDFBC4E90A015B4648463946069A11
:102D1000FDF7B8FB5B46049AFDF7B1FBC4E90C0173
:102D20002A46334640465146FDF7ACFB0D9B009AC0
:102D3000FDF7A5FBC4E90E015B4640465146069AE5
:102D4000FDF7A0FBDDE90E23FDF799FBC4E91001B7
:102D5000079912981AB0BDE8F09F2DE9F04186B0AE
:102D60008046012504A8CDE9000564242B46752280
:102D7000D02102944046FEF7C5FC9DF8100068285B
:102D800003D0012006B0BDE8F081002703AE8DF826
:102D90000C700096CDE9015401236B22D0214046EE
:102DA000FEF7DEFD07208DF80C000096CDE90154FA
:102DB00001231922D0214046FEF7D2FD8DF80C7078
:102DC0000096CDE9015401231C22D0214046FEF794
:102DD000C7FD8DF80C700096CDE9015401231B222C
:102DE000D0214046FEF7BCFD0020CBE72DE9F04F97
:102DF00089B00C4664230E2204A98DE80E0001233D
:102E00003B22D021FEF77EFCBDF8100040BA00B294
:102E10002080BDF8121049BA09B261808946BDF818
:102E2000141049BA09B2A1808846BDF8161049BAF3
:102E30000FFA81FABDF8181049BA0FB22784BDF80D
:102E40001A1049BA0EB26684BDF81C1049BA0DB208
:102E5000A584FDF718FC6FF00D0B5A46FDF7F3FB48
:102E6000C4E902014846FDF70EFC5A46FDF7EBFBAC
:102E7000C4E904014046FDF706FC0022614BFDF762
:102E800073FBC4E906015046FDF7F4FB5E49FDF70C
:102E900014FA5E49FDF787F920643846FDF7F3FB25
:102EA0005B4F00223B46FDF75FFBC4E90A01304659
:102EB000FDF7E9FB00223B46FDF756FBC4E90C0198
:102EC0002846FDF7E0FB00223B46FDF74DFBC4E939
:102ED0000E01FEF7B7FA4F4D2968401AFDF7E4FBE3
:102EE00000224D4BFDF740FB81468A46FEF7AAFAC9
:102EF0002860B4F90010B4F90400494300FB001045
:102F0000FDF7C1FB01F006FE002205460E46134602
:102F1000FDF71CFC10D0B4F90200FDF7B4FB2A4603
:102F20003346FDF721FB01F003F93C4A3C4BFDF72A
:102F3000A9FA0746884601E00027B846B4F904001C
:102F4000FDF7A1FB0646B4F900000D464042FDF72F
:102F50009AFB32462B4601F0FBF9304A304BFDF725
:102F600091FADFF8C0B005460E4600225B46FDF739
:102F7000EDFB06D2D4E9140100222B4BFDF7FEFB3A
:102F80000DD30022284B28463146FDF7F7FB0DD222
:102F9000D4E9140100225B46FDF7D8FB06D21D4898
:102FA0005030C0E90656C4E914560DE0CDE9029A46
:102FB000D4E90C01CDE9000116482A4633465030C9
:102FC000FFF705FEC4E91401D4E9140121F0004122
:102FD0000022154BFDF7D2FB03D2E16A81F00041DC
:102FE000E162CDE9029AD4E90A01CDE9000109487C
:102FF0003A4643460830FFF7EAFDC4E9120109B03A
:10300000BDE8F08F0029CC400000AA43B81E124250
:10301000006060400000002000408F40F8C1631A4B
:10302000DCA54C40008056C0008056403EB50024D0
:1030300011480094019402940E49846001600125B6
:103040000573047505614FF460214460C161FDF7AB
:103050001DFF08B1FDF790FD0620CDE9000569468A
:1030600002940548FDF790FE002801D0FDF784FD8D
:103070003EBD000000240140A80500203EB500240C
:1030800011480094019402940E4984600160012566
:103090000573047505614FF460214460C161FDF75B
:1030A000F5FE08B1FDF768FD0720CDE9000569468A
:1030B00002940548FDF768FE002801D0FDF75CFD8D
:1030C0003EBD000000280140D8050020F0B585B0C5
:1030D000002423480094019402940394816941F0F0
:1030E00010018161816901F010010491816941F051
:1030F00020018161816901F020010491816941F021
:1031000004018161816901F004010491816941F048
:10311000080181618069134F00F0080004900022CB
:1031200005213846FEF789F9052001250226CDE95B
:103130000005CDE9024669463846FEF789F8009653
:1031400069463846CDE90145FEF782F8CDE90054DD
:10315000694605480295FEF77BF805B0F0BD000012
:103160000010024000080140000C01400D4810B55D
:103170000B4901600C49416000214FF4804281609D
:10318000C0E9031241618161C1610162FEF760F92A
:10319000002803D0BDE81040FDF7EEBC10BD0000D4
:1031A0000054004008060020A08601000D4810B51C
:1031B0000B4901600C49416000214FF4804281605D
:1031C000C0E9031241618161C1610162FEF740F90A
:1031D000002803D0BDE81040FDF7CEBC10BD0000B4
:1031E000005800405C060020A08601000C4810B585
:1031F0000A4901604FF416514160002181600C22A0
:10320000C160C0E904128161C161FFF7B0F9002813
:1032100003D0BDE81040FDF7AFBC10BD0038014041
:10322000B0060020FEE7FEE72DE9FF4F81460025AE
:103230001446032081B08846A0EB4400009045E08E
:10324000A9EB040006B208EB050BA8EB050A09EB95
:1032500004070DE00BF0FF01F0B2049A00F088FAC9
:103260000AF0FF01F0B2049A00F082FA761C36B23E
:10327000B742EFDAA9EB050006B208EB040BA8EBA6
:10328000040A09EB05070DE00BF0FF01F0B2049A08
:1032900000F06EFA0AF0FF01F0B2049A00F068FA4A
:1032A000761C36B2B742EFDA6D1C00982DB20028BA
:1032B00004DA00EB8500801D00B2BFE7291B00EB9C
:1032C00081000A3000B2641E24B20090A542B7DD2E
:1032D00005B0BDE8F08F00002DE9F84F0446174611
:1032E0003D481E460D46BC4210D1B5420AD9457034
:1032F0002E461D4606E0294620460A9A00F038FA76
:103300006D1CEDB2B542F6D9BDE8F88FB5420FD1CC
:10331000BC420AD944702746144606E02946204696
:103320000A9A00F025FA641CE4B2BC42F6D9EBE735
:10333000381B711B002801DD012300E000234FF042
:10334000FF3202EB43030093002901DD012300E07B
:103350000023A846002502EB430B002800DA404278
:103360008146002900DA49428A46D14516DC2FE021
:1033700008F0FF01E0B20A9A00F0FAF905EB0A0042
:1033800005B2B9EB450F06DC08EB0B000FFA80F82D
:10339000A5EB090005B20098204404B2BC42E7D175
:1033A000B2E700BF08F0FF01E0B20A9A00F0E0F9CE
:1033B00005EB090005B2BAEB450F05DC0098204487
:1033C00004B2A5EB0A0005B208EB0B000FFA80F877
:1033D000B045E7D198E70000980000202DE9F841BA
:1033E0001C46079E851888460746EAB20B4600969B
:1033F000FFF772FF4444E3B2EAB2E1B23846009606
:10340000FFF76AFF3A46E3B2414610460096FFF7DF
:1034100063FFE3B2EAB2E8B241460096FFF75CFF11
:10342000BDE8F88110B5AE2000F0DAF8202000F0F9
:10343000D7F8102000F0D4F8B02000F0D1F8C82060
:1034400000F0CEF8002000F0CBF8102000F0C8F813
:10345000402000F0C5F8812000F0C2F8DF2000F025
:10346000BFF8A12000F0BCF8A62000F0B9F8A82011
:1034700000F0B6F83F2000F0B3F8A42000F0B0F858
:10348000D32000F0ADF8002000F0AAF8D52000F01D
:10349000A7F8F02000F0A4F8D92000F0A1F822202D
:1034A00000F09EF8DA2000F09BF8122000F098F867
:1034B000DB2000F095F8202000F092F88D2000F03D
:1034C0008FF8142000F08CF800F008F800F068F98C
:1034D000BDE81040AF2000F083B800004FF48061D9
:1034E0000148FCF748BE0000490100203CB51C78AB
:1034F000059D203ACDE900455D68E41D5B78E40850
:10350000544303FB045200F0CBF83CBD2DE9FF4FC0
:1035100018785978C01DC00800254843001D83B0A5
:103520001C46174600F0FF0A2AE07819814600F091
:1035300097FB5FEA000826D000260AE0616848464B
:1035400006FB0A1B42465946FCF720FEF0B1761CEA
:10355000F6B2207AB042F1D810980090E368B8F142
:10356000010F20D0DDE903012022FFF7BFFFE06853
:10357000417803980844C0B2039005EB080085B277
:10358000785D0028D1D107B0BDE8F08F1099207880
:10359000CDE900016378DDE903010BF1040200F0DD
:1035A0007FF86178E5E77A5DDDE90301FFF79EFFCB
:1035B000E0686D1CADB2417803980844C0B2039036
:1035C000DEE7000008B54FF0FF3200920B460246DE
:1035D00078210248FEF700F808BD00005C060020D4
:1035E0000249487002210148FFF7ECBF9A00002011
:1035F0002DE9FC4180460720CDE9000301F00704D6
:10360000CD08164602FA04F01F46C2B223464146D0
:10361000284600F089F8002C0CD0601EC0B2CDE91D
:103620000007C4F1080026FA00F2681C0023414696
:1036300000F07AF8BDE8FC812DE9FC4301F00706B3
:103640001446CD089846814601F0070106EB0802B2
:1036500004FA01F0099F082A16D90721CDE90017BD
:10366000C2B233464946284600F05EF808EB060031
:103670000938C0B2CDE90007C6F1080024FA00F20B
:10368000681C0023494607E0521ED1B2CDE900175D
:10369000C2B233464946284600F046F8BDE8FC83EE
:1036A0002DE9FF4F82B01D460F989346C70800F0E2
:1036B000070088460026019018E0029800240BEBD2
:1036C000060A00EB06090DE004FB05F0109B10F85C
:1036D0000A2008EBC400C1B209F0FF00FFF788FF21
:1036E000641CE4B2BC42EFD3761CF6B2AE42E4D323
:1036F0000198002815D005FB07F6002408EBC70742
:103700000DE010980090311902981BF80120204418
:10371000F9B2C0B2019BFFF78FFF641CE4B2AC4268
:10372000EFD306B0BDE8F08FF0B50828DDE90564F9
:1037300019D2802917D20CB1D243D2B2FF25761C00
:1037400005FA06F6C3F10803084F46EA0204DD4015
:1037500007EBC017044B785CB2432C43AA432040CC
:103760001A7010437854F0BD9800002049010020E1
:1037700030B580280ED240290CD201F00704012375
:10378000064DA340C90805EBC111002A0A5C02D00E
:103790009A430A5430BD1A43FBE700004901002058
:1037A00070B5104D40200024287005F1810600BF3F
:1037B00004F1B000C0B2FFF713FF0020FFF710FFC5
:1037C0001020FFF70DFF06EBC4118022681CFCF7E8
:1037D000B9FC81210348FFF7F5FE641CE4B2082C14
:1037E000E6D370BDC8000020F0B5A5B0FFF776FEA7
:1037F0006A4D0024287800286ED0694B69A2052103
:103800000A200094FFF782FE654B68A2052146203E
:103810000094FFF77BFE624B65A21C2146200094BA
:10382000FFF774FE5E4B63A2322146200094FFF73F
:103830006DFE219422942394E868FCF742FF02462F
:103840005DA121A800F026FA554B21AA05215A2096
:103850000094FFF75BFE2869FCF733FF024656A190
:1038600022A800F017FA4E4B22AA1C215A200094DD
:10387000FFF74CFE6869FCF724FF02464EA123A81F
:1038800000F008FA464B23AA32215A200094FFF791
:103890003DFEE86880F0004248480090D5E90413F6
:1038A00001A8FDF767FA00250DF1040606EBC50037
:1038B000009481790A31CBB2017980781E39CAB27D
:1038C0000A30C1B216F835001E38C0B2FFF704FD49
:1038D0006D1C0C2DEADB5BE06878002858D00A21CB
:1038E0002F4B37A208460094FFF710FE2C4B36A250
:1038F0001E210A200094FFF709FE294B33A2322132
:103900000A200094FFF702FE019402946A882AA11B
:1039100001A800F0BFF91E21214B01AA084600941E
:10392000FFF7F4FDAA8824A102A800F0B3F91C4B0C
:1039300002AA32211E200094FFF7E8FD32231A4626
:103940000A2146200094FFF749FDA888FCF7ACFE49
:103950001F4E204F32463B46FCF794FD00221E4B83
:10396000FCF78DFDFCF7C6FEC4B26888FCF79CFE30
:1039700032463B46FCF786FD0022184BFCF77FFDE4
:10398000FCF7B8FEC0B2002302222146FFF74CFC30
:1039900025B0BDE8F040FFF703BF00009C00002009
:1039A000E85100086D70753630353000783A000007
:1039B000793A00007A3A0000256400000000E041F6
:1039C00068772D6B65790000583A0000593A00007D
:1039D00090810C642003893F00004E4000005E404F
:1039E00070477047704730B593B028216846FCF7A0
:1039F000C2FB14210AA8FCF7BEFB002501200F958D
:103A000010951195010412958DE8230004904FF450
:103A1000E010CDE90810022407946846FEF714FB75
:103A200008B172B6FEE70AA90F2081E831004FF411
:103A30008060CDE90D0502210AA8FEF709FA08B158
:103A400072B6FEE74FF4004011900F940FA8FEF7F6
:103A500089F9002801D072B6FEE713B030BD704777
:103A60000148FEF7DEBC0000F8060020F0B5026851
:103A7000194B1A4C1A4D4FF08047984205D0B84266
:103A800003D0A04201D0A84203D122F070064A68B8
:103A90003243984205D0B84203D0A04201D0A84298
:103AA00003D122F44074CA6822434C6922F0800298
:103AB000224302608A68C2620A688262984201D127
:103AC00009690163012141610169C90703D00169E5
:103AD00021F001010161F0BD002C01400004004013
:103AE0000008004001680C3151E8002F22F4907268
:103AF00041E80023002BF5D10168143151E8002F73
:103B000022F0010241E80023002BF5D1016B0129CD
:103B100009D101680C3151E8002F22F0100241E870
:103B20000023002BF5D1202180F8421000210163F1
:103B30007047000070B5044600680169E26821F42E
:103B40004051114301612169A0680843616908433C
:103B50002168CA6841F20C639A430243CA60206834
:103B60004169A26921F44071114341611E492068F5
:103B7000884202D1FEF732FA01E0FEF71FFA00EBAD
:103B8000C00101EB0012606864218000B2FBF0F319
:103B9000B3FBF1F36FF018067343B2FBF0F5B2FB21
:103BA000F0F605EB8305322303EB0515B5FBF1F5C4
:103BB000B6FBF1F605F0F00505EB0615B2FBF0F6E5
:103BC000B2FBF0F0B0FBF1F06FF01802504306EBDF
:103BD000800003EB0010B0FBF1F0216800F00F0053
:103BE0002844886070BD0000003801402DE9F8438A
:103BF000984617460D460446089E24E0701C22D0C5
:103C0000FDF720FCA0EB0800B0421AD8CEB1206826
:103C1000C168490717D5802D15D0402D13D00168F4
:103C2000C94309070FD40168002540680090204669
:103C3000FFF758FF0820606484F840500120BDE879
:103C4000F8830320FBE72068006835EA000004D011
:103C50000020B842D2D00020F1E70120F9E7FEE7CA
:103C60000078010601D4012070470621B1EB501FF6
:103C700001D1022070470E21B1EB101F01D10320AA
:103C800070471E21B1EBD00F01D1042070470020F6
:103C9000704700000FB4084B10B504A902AA03989E
:103CA00000F07CF9044602A9002000F021FA204629
:103CB00010BC5DF814FB0000F1400008490050EA18
:103CC000C12018BF04204A0D18BF40F0010040F287
:103CD000FF72B2EB515F08BF40F00200012808BF3D
:103CE000052070474100080218BF04200A0E18BFC3
:103CF00040F001004FF07F4232EA010108BF40F07E
:103D00000200012808BF052070470907090E002896
:103D100004DB00F1E02080F80014704700F00F0091
:103D200000F1E02080F8141D70472DE9F0414F1E8E
:103D300000EBC7010446D1E9000115461E4637F0E5
:103D400006020DD02A463346FCF79CFB7F1E04EB8F
:103D5000C703D3E90023FCF7EEFA37F00602F1D1EE
:103D6000022F25D0042F13D0062F18BFBDE8F081F5
:103D70002A463346FCF786FBD4E90A23FCF7DBFA34
:103D80002A463346FCF77EFBD4E90823FCF7D3FA36
:103D90002A463346FCF776FBD4E90623FCF7CBFA38
:103DA0002A463346FCF76EFBD4E90423FCF7C3FA3A
:103DB0002A463346FCF766FBD4E90223FCF7BBFA3C
:103DC0002A463346FCF75EFBD4E90023BDE8F04108
:103DD000FCF7B1BA0122FCF736BCFCF7ACBA000024
:103DE000024A00201107FCF72EBC000001FDFFFF76
:103DF0000121FCF743BE00210846FCF75EBA6FF0D4
:103E00005E010807FCF73ABE2DE9F04D0D46144659
:103E10004FF07F41B1EB440F9EBF4FF0FF3129605F
:103E2000BDE8F08D4FF0004040EA0421C4F3C750D4
:103E3000783810F01F024A4B4FEA601CC2F120068E
:103E40007B44C4F3C750A0F178004FEA601003EB45
:103E5000800053F82C3008BFD0E901C612D0D0F84A
:103E600004C093402CFA06F73B4387680CFA02FC27
:103E700027FA06F8C06807FA02F2F0404CEA080C8C
:103E800042EA0006A3FB0132ACFB01C0A6FB0161C4
:103E900001EB0C068E4234BF4FF0010C4FF0000CCA
:103EA000C1186144BCF1000F02D0814202D903E085
:103EB000814201D2012000E00020104400F12002E4
:103EC0004FEA92188006CA0C40EA42304F03C5F808
:103ED0000080FCF7CFFB82463846FCF7DBFD6FF035
:103EE0001201FCF7CBFD07463046FCF7D3FD6FF01F
:103EF0002501FCF7C3FD834639465046FCF753F9CC
:103F00005946FCF750F900F500666FF30B06514671
:103F10003046FCF79AF93946FCF797F95946FCF711
:103F200097F91049FCF797F907460F493046FCF717
:103F300092F93946FCF737F907460C493046FCF749
:103F40008AF93946FCF72FF914F0004F08BFBDE895
:103F5000F08DC8F1805180F000402960BDE8F08DFF
:103F60000C150000DB0FC92F22AAFD290000C92F64
:103F700002E008C8121F08C1002AFAD17047704732
:103F8000002001E001C1121F002AFBD17047000090
:103F90000149086070470000C40000202DE9FF4F70
:103FA00089B09B460446002506E025280BD05A46DA
:103FB0000B999047641C6D1C20780028F5D10DB03A
:103FC0002846BDE8F08F0027B8460122474900E0A7
:103FD000074314F8013F203B02FA03F00842F7D1EF
:103FE00020782E2819D114F8010F47F004072A2849
:103FF0000ED06FF02F022078A0F1300109290CD8E3
:1040000008EB880102EB410100EB0108641CF2E7B8
:104010000A98641C50F8048B0A9020780028CED0AF
:10402000642808D0692806D075281ED05A460B99F6
:1040300090476D1C58E00A994FF00A0901C90A918E
:10404000002802DA40422D2102E0390504D52B2157
:104050008DF82010012103E0F90704D02021F7E7B3
:104060008A4608AE0DE00021FAE70A994FF00A09E6
:1040700001C90A91F7E74946FCF7B4FB303106F86D
:10408000011D0028F7D1ADEB060000F120097807EB
:1040900001D44FF00108C84502DDA8EB090000E09B
:1040A00000208046002706E008A85A46C05D0B990C
:1040B00090476D1C7F1C5745F6DB04E030205A46C4
:1040C0000B9990476D1CB8F10001A8F10108F5DCCF
:1040D00005E016F8010B5A460B9990476D1CB9F193
:1040E0000001A9F10109F4DC641C65E7092801005D
:1040F0000A68531C0B6010707047000010B56421F3
:104100000848FCF795FF0748FCF7BCFE064C642105
:1041100060800648FCF78CFF0448FCF7B3FEA080E3
:1041200010BD0000A80500209C000020D80500203C
:104130002DE9F84F04460D4621F0004000917349E7
:10414000814211DC7249884201DC06D12CB1204643
:104150002946BDE8F84FFFF73DBE6E48002DCCBFA5
:104160006D496E49BDE8F88F6D49814211DD6D4999
:104170008142D8BF4FF0FF366DDD20462946FFF75C
:104180009DFD042808BFFFF72BFE20462946BDE809
:10419000F88F6549654F25F00045814233DD64495C
:1041A000814219DD002632464FF0804320462946E1
:1041B000FCF7C1F880468A46012220462946FCF7D2
:1041C00042FA00223B46FCF757F942465346FCF7B9
:1041D000CBF904460D463EE001260022BA463B4696
:1041E00020462946FCF7A7F880460F460022534692
:1041F00020462946FCF740F942463B46FCF7B4F915
:1042000004460D4627E04B4981421BDDDFF828A11B
:1042100002260022534620462946FCF733F90022A5
:104220003B46FCF788F880460F460022534620465E
:104230002946FCF721F942463B46FCF795F904462E
:104240000D4608E0032622462B4600203B49FCF79A
:104250008BF904460D4622462B4610461946FCF7BC
:1042600011F98B46824602460B46FCF70BF90746CE
:104270000246334888460B4606217844FFF755FD31
:1042800052465B46FCF7FEF882462E488B463A467D
:10429000434605217844FFF748FD3A464346FCF77C
:1042A000F1F802460B46002E504659460CDAFCF750
:1042B00042F822462B46FCF7E5F801B022462B4691
:1042C000BDE8F04FFCF7DBB8FCF735F822462B468B
:1042D000FCF7D8F81C4A7A4402EBC603D3E9002362
:1042E000FCF7CAF822462B46FCF7C6F8174A7A4470
:1042F00002EBC603D3E90023FCF7C1F8009A002AB9
:10430000B8BF81F00041BDE8F88F00000000104404
:104310000000F07F182D4454FB21F93FFB21F9BF29
:104320000000DC3F0000203E0000F33F0000F03FB3
:104330000000E63F008003400000F83F0000F0BFAF
:104340009A10000058100000F60F0000BE0F000089
:104350002DE9F04D9446CCF1000423F000464CEAE0
:104360000404524F46EAD4749A46884621F000422B
:10437000BC4206D8454240EA050442EAD474BC4235
:1043800004D9BDE8F04D6246FFF727BDAAF14055BC
:10439000A5F17F6555EA0C040BD0022404EAAA7447
:1043A000434DDFF810E144EAD87452EA000B04D020
:1043B0000CE0BDE8F04DFFF7BBBE002C14BF012C94
:1043C000BDE8F08D022C30D0032C32D056EA0C0B15
:1043D0000AD0BE4220D1BA4209D126F0804622F04E
:1043E00080423346114617E000291ADB25E0DFF84A
:1043F000C8B0FB44002C04BFDBE90001BDE8F08D30
:10440000012C02BFDBE9000181F00041BDE8F08D25
:10441000022C0AD0032C0CD0BA4212D1B8F1000FF2
:104420000BDA23482549BDE8F08D28462449BDE82C
:10443000F08D28467146BDE8F08D1D482149BDE844
:10444000F08D921B12153C2AC4BF19481D490EDC81
:10445000BAF1000FBEBF12F13C0F0020014606DB8F
:104460006246FCF781F821F00041FFF761FE002C65
:1044700008BFBDE8F08D012C04BF81F00041BDE80C
:10448000F08D114A114B022C07D0FBF7F5FF2A469D
:10449000BDE8F04D0A4BFBF7EFBFFBF7EDFF2A46F7
:1044A000BDE8F04D064BFBF7EABF00000000F07FCF
:1044B000182D4454FB2109C0520F0000FB21F9BF05
:1044C000FB210940FB21F93F075C143326A6A13CE0
:1044D0002DE9F843044602464F486946B0EB420FC7
:1044E00009D94FF0E640B0EB420F94BF00204FF0E7
:1044F000FF30009030E0494B22F00040834271D9F8
:1045000047492046FBF7A7FEFCF7DAF98046FCF79F
:10451000D8F800F00300009042494046FBF79BFEAC
:10452000054641494046FBF796FE06463F49404650
:10453000FBF791FE07463E494046FBF78CFE2146BD
:10454000FBF786FE3946FBF780FE3146FBF77DFE22
:104550002946FBF77AFE04462546009C002C45DBE5
:10456000294614F0010F08461CD0FBF774FE0646DE
:104570003049FBF770FE3049FBF76AFE3146FBF726
:104580006AFE2E49FBF70FFE3146FBF764FE294613
:10459000FBF761FE2946FBF706FE14F0020F1CD064
:1045A000BDE8F883FBF757FE05462549FBF753FEA8
:1045B0002449FBF7F8FD2946FBF74DFE2249FBF79E
:1045C000F2FD2946FBF747FE4FF07E51FBF7EBFD6E
:1045D00014F0020F08BFBDE8F88380F00040BDE88A
:1045E000F883FFE71046FFF70FFCB4E76800B0F16F
:1045F0007F4F3CBF4FF07E50BDE8F88307D14FF0AE
:104600000100FFF7C5FCBDE8F843FFF7F4BB2846FF
:10461000BDE8F843FFF7ECBBB61F927E490E494652
:1046200083F9223F1A61342C0020A23300A0FD3907
:104630000000C93F336D4C39DA82083CA0AA2ABE7B
:10464000B93AB2BACA9F2A3DDDFFFFBEFDF77CFA38
:10465000FFF7C9F9FEF73AFDFEF788FDFEF7C6FD44
:10466000FEF7A4FDFEF7E2FCFEF708FD1648FEF794
:1046700074FB1420FCF7DAFDFEF7D4FE1348FCF7B8
:1046800075FD1348FCF772FD00F028F8114D124C2F
:1046900000F024F8FFF732FD02212846FCF7C8FE9F
:1046A00068B90A20FCF7C2FD02212846FCF7C0FECB
:1046B0000028F9D02078C0432070C043607000F01B
:1046C0002FF8FFF791F8E3E708060020A80500207F
:1046D000D8050020000801409C00002070B50D495D
:1046E0000D48FEF783FB0B4DD5E91201FCF75EF890
:1046F0000A4CE060D5E91401FCF758F82061D5E9CF
:104700000E01FCF753F86061BDE870400520FCF72E
:104710008DBD000050050020080600209C000020F0
:104720002DE9F0478BA08AB0D0E90010CDE9001048
:104730008AA0924CD0E90010CDE9021089A1904DD9
:10474000D1E90001CDE9040188A1DFF83892D1E96F
:104750000001CDE9060187A14FF0FF3AD1E9000140
:10476000CDE9080120784FF40008002874D0B4F98E
:104770000600FBF788FF064620690F4620F0004040
:10478000FBF7D1FF32463B46FBF7F8FF16D820690E
:10479000404513DBB4F90600FBF775FF0646E068F9
:1047A0000F4620F00040FBF7BEFF32463B46FBF7CA
:1047B000CDFF03D853460822694678E0B4F90600D5
:1047C000FBF761FF0646E0680F4620F00040FBF76C
:1047D000AAFF32463B46FBF7D1FF16D8E0684845B2
:1047E00013D3B4F90600FBF74EFF064620690F46C7
:1047F00020F00040FBF797FF32463B46FBF7A6FF51
:1048000003D85346082202A951E0B4F90600FBF789
:104810003AFF0646E0680F4620F00040FBF783FFB2
:1048200032463B46FBF7AAFF17D8E068404514DB49
:10483000B4F90600FBF727FF064620690F4620F073
:104840000040FBF770FF32463B46FBF77FFF04D882
:104850005346082206A92AE033E0B4F90600FBF724
:1048600012FF064620690F4620F00040FBF75BFF71
:1048700032463B46FBF782FF16D82069484513D3E2
:10488000B4F90600FBF7FFFE0646E0680F4620F08D
:104890000040FBF748FF32463B46FBF757FF03D883
:1048A0005346082208A902E05346082204A93648C4
:1048B000FDF7D0FE012211462846FCF7BEFD00227E
:1048C0003DE06078002841D02C48A288B4F9083037
:1048D000B0F90A1040889A4207DD884205DD984207
:1048E00003DA53460822694620E0984207DD8A42EF
:1048F00005DD9A4203DA5346082202A916E08842EF
:1049000007DA8A4205DD9A4203DA5346082206A9ED
:104910000CE08A4207DA884205DD984203DA534602
:10492000082208A902E05346082204A91648FDF708
:1049300091FE002201212846FCF77FFD012204217F
:104940002846FCF77AFD0A20FCF770FC0AB0BDE8A7
:10495000F0870000FFAA02010100FEEFFFAA02019A
:104960000400FEEFFFAA02010300FEEFFFAA02010E
:104970000200FEEFFFAA02010500FEEF9C000020EE
:104980000008014000008080B00600202DE9F843B7
:104990000446024652486946B0EB420F09D94FF02F
:1049A000E640B0EB420F94BF00204FF0FF30009084
:1049B00030E04C4B22F00040834271D94A492046F6
:1049C000FBF749FCFBF77CFF8046FBF77AFE00F023
:1049D0000300009045494046FBF73DFC054644492D
:1049E0004046FBF738FC064642494046FBF733FC9D
:1049F000074641494046FBF72EFC2146FBF728FCC1
:104A00003946FBF722FC3146FBF71FFC2946FBF732
:104A10001CFC04462546009C002C45DB294614F06E
:104A2000010F08461ED0FBF716FC05463349FBF77D
:104A300012FC3349FBF7B7FB2946FBF70CFC314965
:104A4000FBF7B1FB2946FBF706FC4FF07E51FBF765
:104A5000AAFB14F0020F08BFBDE8F88380F0004005
:104A6000BDE8F883FBF7F7FB06462749FBF7F3FBA6
:104A70002649FBF7EDFB3146FBF7EDFB2449FBF73D
:104A800092FB3146FBF7E7FB2946FBF7E4FB29469F
:104A9000FBF789FB14F0020FE0D1BDE8F883FFE7D4
:104AA0001046FFF7B1F9B4E76800B0F17F4F09D2C3
:104AB0002846FFF717F9042808BFFFF7A0F9284692
:104AC000BDE8F88306D10120FFF762FABDE8F8439C
:104AD000FFF791B92846BDE8F843FFF789B9000010
:104AE000B61F927E490E494683F9223F1A61342C43
:104AF0000020A23300A0FD390000C93FB93AB2BA84
:104B0000CA9F2A3DDDFFFFBE336D4C39DA82083C77
:104B1000A0AA2ABE2DE9F04106460F46FBF74BFF3F
:104B200004000D4618BF0120284320F00040C0F1CA
:104B30007F6000F1E040C00F0ED0301C18BF012094
:104B4000384320F00040C0F17F6000F1E040C00F2A
:104B500004BF0120FFF71CFA20462946BDE8F0817A
:104B60000000000000000000000000000000000045
:104B7000000000F8000000000000003330000000DA
:104B800000100C06100C06000000000000000000E1
:104B900040C07840C0784000043F04043F04040053
:104BA000007088FC08300000001820FF211E000063
:104BB000F008F000E018000000211C031E211E0078
:104BC00000F00888700000001E21232419272110FE
:104BD00010160E00000000000000000000000000A1
:104BE000000000E018040200000000071820400048
:104BF00000020418E0000000004020180700000038
:104C0000404080F0804040000202010F010202009B
:104C1000000000F0000000000101011F010101007F
:104C2000000000000000000080B0700000000000E4
:104C3000000000000000000000010101010101016D
:104C40000000000000000000003030000000000004
:104C500000000000806018040060180601000000D9
:104C600000E010080810E000000F102020100F00D6
:104C7000001010F8000000000020203F202000005D
:104C800000700808088870000030282422213000B5
:104C900000300888884830000018202020110E00BD
:104CA0000000C02010F8000000070424243F240066
:104CB00000F80888880808000019212020110E003B
:104CC00000E0108888180000000F112020110E004D
:104CD00000380808C83808000000003F0000000045
:104CE0000070880808887000001C222121221C0006
:104CF00000E010080810E0000000312222110F002F
:104D0000000000C0C00000000000003030000000C3
:104D10000000008000000000000080600000000033
:104D2000000080402010080000010204081020004C
:104D30004040404040404000040404040404040097
:104D4000000810204080000000201008040201002C
:104D5000007048080808F00000000030360100002C
:104D6000C030C828E810E0000718272423140B00DF
:104D70000000C038E0000000203C23020227382059
:104D800008F8888888700000203F202020110E003D
:104D9000C030080808083800071820202010080034
:104DA00008F808080810E000203F202020100F001D
:104DB00008F88888E8081000203F202023201800E9
:104DC00008F88888E8081000203F20000300000051
:104DD000C03008080838000007182020221E0200F2
:104DE00008F808000008F808203F210101213F20B1
:104DF000000808F8080800000020203F20200000DC
:104E000000000808F8080800C08080807F000000CB
:104E100008F888C028180800203F20012638200004
:104E200008F8080000000000203F2020202030006B
:104E300008F8F800F8F80800203F003F003F200085
:104E400008F830C00008F808203F200007183F008D
:104E5000E01008080810E0000F10202020100F00BC
:104E600008F808080808F000203F210101010000AF
:104E7000E01008080810E0000F18242438504F00F4
:104E800008F8888888887000203F2000030C3020B4
:104E900000708808080838000038202121221C00F2
:104EA000180808F8080818000000203F200000003B
:104EB00008F808000008F808001F202020201F0024
:104EC0000878880000C83808000007380E01000084
:104ED000F80800F80008F800033C0700073C03004E
:104EE000081868808068180820302C03032C3020B4
:104EF0000838C800C83808000000203F2000000023
:104F000010080808C838080020382621202018007A
:104F1000000000FE020202000000007F404040004E
:104F2000000C30C000000000000000010638C00086
:104F300000020202FE000000004040407F0000002E
:104F40000000040202020400000000000000000053
:104F50000000000000000000808080808080808051
:104F60000002020400000000000000000000000039
:104F700000008080808000000019242222223F202F
:104F800008F8008080000000003F112020110E0072
:104F90000000008080800000000E11202020110001
:104FA000000000808088F800000E112020103F20B3
:104FB0000000808080800000001F22222222130037
:104FC000008080F0888888180020203F2020000082
:104FD0000000808080808000006B94949493600037
:104FE00008F8008080800000203F210000203F2042
:104FF00000809898000000000020203F2020000042
:10500000000000809898000000C08080807F000031
:1050100008F8000080808000203F24022D3020000E
:10502000000808F8000000000020203F20200000B9
:105030008080808080808000203F20003F20003FD3
:105040008080008080800000203F210000203F20E1
:105050000000808080800000001F202020201F0092
:10506000808000808000000080FFA12020110E00C1
:105070000000008080808000000E112020A0FF80B2
:10508000808080008080800020203F21200001005F
:1050900000008080808080000033242424241900B4
:1050A000008080E0808000000000001F20200000C1
:1050B0008080000000808000001F202020103F2002
:1050C000808080000080808000010E300806010092
:1050D00080800080008080800F300C030C300F0037
:1050E00000808000808080000020312E0E31200062
:1050F000808080000080808080818E701806010092
:1051000000808080808080000021302C22213000AF
:1051100000000000807C020200000000003F4040D0
:1051200000000000FF00000000000000FF00000081
:105130000002027C800000000040403F00000000B0
:10514000000601010202040400000000000000004B
:1051500010080000604B0008E6B3A2001060020CCB
:10516000C000F8888888FF8888A8180004047C0399
:1051700080601F80432C102846818000E789B90099
:10518000403C10FF1010404848487F48C848400045
:10519000020602FF010100020A1242827F0202009F
:1051A000E5BE8B00001088C43310545454FF54548F
:1051B0007C101000020100FF0010121212FF1212E8
:1051C00012100000E58AA8004044C4444444401042
:1051D00010FF101010F00000103C131014B84030F5
:1051E0000E014080403F00001010000058510008A0
:1051F0000400000050510008000000BF000000BF84
:10520000000000BF0000003F000000BF000000BF22
:105210000000003F0000003F000000BF000000BF92
:105220000000003F000000BF000000BF000000BF02
:105230000000003F0000003F000000BF0000003FF2
:105240000000003F0000003F0000003F000000BFE2
:105250000000003F0000003F0001010202030300C4
:1052600004050506060707040004010502060307F6
:10527000010202030405060708090A0B0C0D0E0FB4
:105280001010010202030405060708090A0B0C0DA1
:105290000E0F1010000000000000000001020304C7
:1052A00006070809000000000102030400000000D6
:1052B0004FBB610567ACDD3F182D4454FB21E93F2E
:1052C0009BF681D20B73EF3F182D4454FB21F93F1D
:1052D000E2652F227F2B7A3C075C143326A6813CA3
:1052E000BDCBF07A8807703C075C143326A6913C4E
:1052F000C4EB98999999C9BF711623FEC671BCBFBA
:105300006D9A74AFF2B0B3BF9AFDDE522DDEADBF21
:105310002F6C6A2C44B4A2BF0D5555555555D53F39
:10532000FF8300922449C23F6E204CC5CD45B73F54
:10533000513DD0A0660DB13FEB0D76244B7BA93FCC
:1053400011DA22E33AAD903F0000000000000000B7
:10535000000000006E83F9A22915444ED15727FCA6
:10536000C0DD34F5999562DB4190433CAB6351FE5F
:105370009053000800000020C8000000703F0008A3
:1053800058540008C8000020780A0000803F000838
:105390000000000000000000000000E04D62503FEF
:1053A000000000C07493683F000000E051B89E3FC9
:1053B00000000000000000000000000000000000ED
:1053C00000000000000000000000000000000000DD
:1053D00000000000000000000000000000000000CD
:1053E000000000E04D62503F000000C07493683F31
:1053F000000000E051B89E3F0000000000000000E7
:10540000000000000000000000000000000000009C
:10541000000000000000000000000000000000008C
:10542000000000000000000000000000000100007B
:1054300000001400B80BE8030000000000000000AA
:10544000000000000100000010000000000000004B
:0854500000127A0000000000C8
:04000005080000ED02
:00000001FF
