:020000040800F2
:10000000980C00209101000863250008051F0008D6
:1000100061250008550600083D300008000000007A
:100020000000000000000000000000004D2A000851
:100030005706000800000000052A0008952A00085D
:10004000AB010008AB010008AB010008AB010008E0
:10005000AB010008AB010008AB010008AB010008D0
:10006000AB010008AB010008AB010008AB010008C0
:10007000AB010008AB010008AB010008AB010008B0
:10008000AB010008AB010008AB010008AB010008A0
:10009000AB010008AB010008AB010008AB01000890
:1000A000AB010008AB010008AB010008AB01000880
:1000B000AB010008AB010008AB010008AB01000870
:1000C000AB010008AB010008AB010008AB01000860
:1000D000AB01000831300008AB010008AB0100089B
:1000E000AB010008AB010008AB01000800F002F80A
:1000F00000F03FF80AA090E8000C82448344AAF183
:100100000107DA4501D100F034F8AFF2090EBAE880
:100110000F0013F0010F18BFFB1A43F0010318473B
:100120001843000038430000103A24BF78C878C153
:10013000FAD8520724BF30C830C144BF04680C60ED
:10014000704700000023002400250026103A28BF35
:1001500078C1FBD8520728BF30C148BF0B60704739
:10016000642900F07D80002070471FB51FBD10B5C9
:1001700010BD00F016FA1146FFF7F7FF03F00CF977
:1001800000F034FA03B4FFF7F2FF03BC00F038FAD2
:100190000948804709480047FEE7FEE7FEE7FEE71B
:1001A000FEE7FEE7FEE7FEE7FEE7FEE70448054957
:1001B000054A064B70470000F72A0008ED000008CA
:1001C00098060020980C002098080020980800202D
:1001D0000FB41CB5074B06AA7B44694600900598EE
:1001E00000F095F90020694600F0A4F91CBC5DF808
:1001F00014FB0000590300002DE9F0410E460446AF
:10020000002020622046E168884730B3252805D0C9
:10021000D4E901219047206A401CF2E7E1682046BA
:1002200000278847050018D0A5F14100192802D8F9
:1002300020354FF400673246294620462760FFF7F5
:100240008FFF40B1012804D0F61D26F007060836BE
:10025000D8E7361DD6E72846DAE7206ABDE8F08100
:100260002DE9F0410646002410687529314616A58F
:1002700010D0AFF30080002802DA404213A507E057
:1002800031688A0701D512A502E0490704D511A5F6
:10029000012401E0AFF3008000210A2206F12407C7
:1002A00009E0B0FBF2FCB0FBF2F302FB1C003030C3
:1002B00078541846491C0028F3D123462A46304674
:1002C000BDE8F04100F0C5B8000000002D000000BE
:1002D0002B0000002000000040EA010310B59B073E
:1002E0000FD1042A0DD310C808C9121F9C42F8D0A0
:1002F00020BA19BA884201D9012010BD4FF0FF3051
:1003000010BD1AB1D30703D0521C07E0002010BD66
:1003100010F8013B11F8014B1B1B07D110F8013BF2
:1003200011F8014B1B1B01D1921EF1D1184610BDD3
:10033000032A40F2308010F0030C00F0158011F811
:10034000013BBCF1020F624498BF11F801CB00F8E9
:10035000013B38BF11F8013BA2F1040298BF00F83D
:1003600001CB38BF00F8013B11F0030300F0E78038
:10037000083AC0F0088051F8043B083A51F804CB21
:10038000A0E80810F5E7121D5CBF51F8043B40F8E7
:10039000043BAFF30080D20724BF11F8013B11F8F2
:1003A00001CB48BF11F8012B24BF00F8013B00F836
:1003B00001CB48BF00F8012B70474FF00002042921
:1003C000C0F0128010F0030C00F01B80CCF1040C84
:1003D000BCF1020F18BF00F8012BA8BF20F8022BB8
:1003E000A1EB0C0100F00DB85FEAC17C24BF00F85E
:1003F000012B00F8012B48BF00F8012B70474FF08C
:10040000000200B5134694469646203922BFA0E864
:100410000C50A0E80C50B1F12001BFF4F7AF090770
:1004200028BFA0E80C5048BF0CC05DF804EB890061
:1004300028BF40F8042B08BF704748BF20F8022BA4
:1004400011F0804F18BF00F8012B704770477047BC
:1004500070472DE9F0470D4699469246044600F153
:1004600024080168880604D5E06921F010012160A4
:1004700000E00120A84201DD471B00E00027A16940
:100480007A1902EB0900081AA0612078C00602D48C
:100490002046AFF30080002608E0D4E901211AF8D5
:1004A00006009047206A401C761C20624E45F4DB13
:1004B0002078C0060AD52046AFF3008006E0D4E9D4
:1004C000012130209047206A401C2062381EA7F18D
:1004D0000107F4DC07E0D4E9012118F80500904792
:1004E000206A401C2062281EA5F10105F3DC20468D
:1004F000AFF300802078000602D50220BDE8F08727
:100500000120FBE701694A1C02610878704700B5C9
:100510008FB0CDE901310021059105497944CDE93C
:10052000031011466846FFF767FE0FB000BD0000DC
:10053000E5FFFFFF0A6802F8010B0A60704710B57B
:10054000203AC0F00B80B1E81850203AA0E81850CB
:10055000B1E81850A0E81850BFF4F5AF5FEA027C8C
:1005600024BFB1E81850A0E8185044BF18C918C0FB
:10057000BDE810405FEA827C24BF51F8043B40F89C
:10058000043B08BF7047D20728BF31F8023B48BF81
:1005900011F8012B28BF20F8023B48BF00F8012BBF
:1005A0007047754600F028F8AE4605006946534688
:1005B00020F00700854618B020B5FFF7F7FDBDE82D
:1005C00020404FF000064FF000074FF000084FF0BA
:1005D000000B21F00701AC46ACE8C009ACE8C0094B
:1005E000ACE8C009ACE8C0098D4670470446AFF3DB
:1005F00000802046FFF7C6FD0048704738060020FF
:1006000001491820ABBEFEE726000200704700003B
:1006100070B50E4D044600221021284600F0B7F9AF
:1006200001222021284600F0B2F90022402128466C
:1006300000F0ADF901228021284600F0A8F9044815
:1006400001684C630068846370BD0000000C0140C9
:1006500060050020FEE7704772B6FEE770B50E4DEC
:10066000044601221021284600F091F900222021A1
:10067000284600F08CF901224021284600F087F935
:1006800000228021284600F082F9044801684C636A
:100690000068846370BD0000000C0140600500200C
:1006A00010B590F821100022022905D004218163A1
:1006B00080F82020012010BD01680B6823F00E0394
:1006C0000B6001680B6823F001030B6090F8403069
:1006D000C46B012101FA03F3636080F8211080F8F4
:1006E0002020104610BD000010B590F82110002405
:1006F000022903D00421816301243DE001680A68D6
:1007000022F00E020A6001680A6822F001020A6003
:100710001A4A0168914201D1012121E0174A14329D
:10072000914201D110211BE0144A2832914201D19B
:10073000891515E0114A3C32914201D189140FE02C
:100740000E4A5032914202D14FF4803108E00B4AF8
:100750006432914202D14FF4801101E04FF0807178
:10076000064A083A5160012180F82110002180F8E2
:100770002010416B01B18847204610BD080002409F
:1007800070B5044600F008F90546601C02D0044824
:100790000078044400F000F9401BA042FAD370BD79
:1007A000300000202DE9F84FDFF8B8910024A9F1BE
:1007B000040B23460F2709F1040AABF1040EC9E02C
:1007C0000125A5402A40AA427DD1674ED1F804C038
:1007D000ACEB0608B44532D014DCBCF1030F3AD0C0
:1007E00009DCBCF1000F2AD0BCF1010F1CD0BCF118
:1007F000020F31D11DE0BCF1110F17D0BCF1120F67
:100800002AD119E0B8F5881F19D006DCB8F5803F69
:1008100015D0B8F5801F1FD111E0B8F5001F0ED01C
:10082000B8F5041F18D10AE0CB6815E0CB681B1D92
:1008300012E0CB6808330FE0CB680C330CE08B6818
:100840002BB1012B4FF0080303D0456104E00423D2
:1008500002E0056100E00023FF2A01D8064601E01E
:1008600000F104064FEA840501D9A5F12005D6F868
:10087000008007FA05FC28EA0C0803FA05F548EAA7
:100880000508C6F800804D68ED0062D5374DAE69A9
:1008900046F00106AE61AD6924F0030605F00105DE
:1008A0000095334D06EB050CDCF80850A607360F13
:1008B00007FA06F825EA0805DFF8B880404503D1B5
:1008C0004FF0000817E044E0DFF8AC80404502D16B
:1008D0004FF001080FE0DFF8A480404502D14FF04F
:1008E000020808E0DFF89880404502D14FF0030885
:1008F00001E04FF0040808FA06F848EA0508CCF8C9
:1009000008804D68D9F80060ED024D4601D51643C8
:1009100000E096432E604D68DAF80060AD0255465F
:1009200001D5164300E096432E604D68DBF8006069
:10093000AD035D4601D5164300E096432E604D6839
:10094000DEF80060ED03754601D5164300E09643DE
:100950002E60641C0D682A46E5407FF431AFBDE887
:10096000F88F000008040140000011100010024040
:100970000000014000080140000C0140001001404F
:10098000001401408068084000D0012070470AB17F
:10099000016170470904FBE7014880687047000067
:1009A0003000002070B5040025D094F83D000025EB
:1009B00020B984F83C50204600F04EF9242084F8F9
:1009C0003D002068016821F0010101602068016894
:1009D00041F4004101602068016821F40041016098
:1009E00000F098FA4D4A6168914201D84C4900E004
:1009F0004C49884201D2012070BD4B492368B0FBAD
:100A0000F1F15E6826F03F060E435E606368934234
:100A100006D94FF4967359434FF47A73B1FBF3F14F
:100A20002368491C1E6A26F03F063143196261683B
:100A3000914210D84900401EB0FBF1F2521CC2F3A3
:100A40000B02042A01D2042022E0B0FBF1F0401C8A
:100A5000C0F30B001CE0A268F2B301EBC10303EB8F
:100A60000116431EB3FBF6F35B1C43F480431B05E6
:100A700049D092B301EBC10202EB0111401EB0FB61
:100A8000F1F0401CC0F30B0040F4804040F4004003
:100A90002168CA694CF6FF739A431043C861D4E9D0
:100AA000071001432068026822F0C0021143016070
:100AB000D4E9030101432068826848F2FF339A4376
:100AC00011438160D4E9050108432168CA6822F016
:100AD000FF021043C86001E00EE016E020680168E4
:100AE00041F0010101602564202084F83D00256368
:100AF00084F83E50002070BD01EB4106431EB3FB5D
:100B0000F6F35B1CB3E70120C2E701EB4101401E95
:100B1000B0FBF1F0401CC0F30B00B7E7A08601006A
:100B200080841E0000093D0040420F002DE9F84F6F
:100B30001F4690468A460446DDF82890FFF72CFFB2
:100B4000054694F83D0020287FD119230122404911
:100B50002046009501F068FA002876D194F83C0010
:100B6000012872D0012084F83C0020680168C90780
:100B700003D1016841F0010101602068016821F49E
:100B800000610160212084F83D00102084F83E00BF
:100B900000262664C4F824806785608D20852D4852
:100BA000E0622B464A465146204601F0C3F990B90F
:100BB000206841698069009036E02A46494620460F
:100BC00001F0D8FA50B1206C042804D120680168E3
:100BD00041F4007101600120BDE8F88F606A21686E
:100BE00000780861606A401C6062618D491E618501
:100BF000218D491E89B2218522685369DB435B0739
:100C00000BD451B100781061606A401C6062608D45
:100C1000401E6085208D401E20852A46494620467C
:100C200001F0D6F90028CED1208D0028C5D154F886
:100C30003D0B016841F400710160202004F81E0999
:100C4000E67766770020C7E7FFE70220C4E70000E9
:100C5000020010000000FFFF10B586B000210091D7
:100C60000191029103910068104988421BD1104CF8
:100C7000A06940F00800A061A069694600F0080082
:100C800004904FF4406000901220019003200390E4
:100C90000848FFF787FDE06940F48000E061E06903
:100CA00000F48000049006B010BD00000058004021
:100CB00000100240000C0140024881680278114493
:100CC0008160704730000020074810B5016841F08E
:100CD00010010160032000F075F80F2000F006F805
:100CE00000F024F8002010BD0020024070B50D4D2A
:100CF00004464FF47A712878B1FBF0F00A4909688C
:100D0000B1FBF0F000F0DCFA48B9102C07D2002259
:100D10002146501E00F036F800206C6070BD0120A6
:100D200070BD0000300000203C0000200C4808B5D9
:100D3000816941F001018161816901F00101009146
:100D4000C16941F08051C161C06900F080500090DC
:100D50000448416821F0E06141F00071416008BD44
:100D60000010024000000140002809DB00F01F02D3
:100D7000012191404009800000F1E020C0F80011FD
:100D800070470000F0B40E4B1B680C46C3F30223FF
:100D9000C3F10705042D00D90425191D072901D227
:100DA000002300E0DB1E012606FA05F1491E214062
:100DB00099409E40761E16403143F0BC02F058B96F
:100DC0000CED00E0064900F0070208684FF6FF034B
:100DD000184040EA0220034A1043086070470000B0
:100DE0000CED00E00000FA052DE9F0470F46050084
:100DF00061D0434E306800F00700B84209D2306835
:100E000020F0070038433060306800F00700B84237
:100E100051D128683B4C810712D5400703D5606843
:100E200040F4E06060602878000703D5606840F413
:100E3000605060606068A96820F0F000084360605E
:100E40002878C00728D06868012810D021680228B7
:100E500010D0890700292EDA616821F003010143CF
:100E60006160FFF799FD804641F288390DE0216805
:100E70008903EFE78901EDE7FFF78EFDA0EB08019D
:100E8000494502D90320BDE8F0876068696800F031
:100E90000C00B0EB810FEFD1306800F00700B842D2
:100EA0000BD9306820F0070038433060306800F01C
:100EB0000700B84201D00120E5E72878400705D5B2
:100EC0006068E96820F4E060084360602878000703
:100ED00006D56068296920F4605040EAC10060606E
:100EE00000F038F86168084AC1F30311515CC8404A
:100EF0000649086006480068FFF7F8FE0020C2E7D0
:100F000000200240001002401E4400083C00002067
:100F1000340000200448054900684968044AC1F3C8
:100F20000221515CC84070473C0000200010024084
:100F30002E4400080448054900684968044AC1F382
:100F4000C221515CC84070473C00002000100240A4
:100F50002E4400080E4A51680E4801F00C03042B81
:100F600011D0082B0FD10C48C1F38343C903C05CD7
:100F70000AD55168084AC1F34041921E515C054AA6
:100F80005043B0FBF1F070470449484370470000FC
:100F90000010024000127A000E44000800093D00D3
:100FA0002DE9F84F040070D02078C04DC00749D01B
:100FB0006868C0F38100012807D06868C0F3810029
:100FC000022809D16868C00306D52868800339D58E
:100FD00060680028E7D035E06068B0F5803F0BD04E
:100FE00010B1B0F5A02F11D0286820F4803028600F
:100FF000286820F4802002E0286840F480302860CF
:10100000606890B1FFF7C8FC06460AE0286840F423
:1010100080202860F0E700BFFFF7BEFC801B64283B
:1010200073D828688003F7D50CE0FFF7B5FC0646B7
:1010300005E000BFFFF7B0FC801B6428F0D82868EB
:101040008003F7D420789A4E80074FF001094FF0C3
:10105000000839D5686810F00C0F07D06868C0F335
:101060008100022809D16868C00306D42868800777
:1010700014D52069012808D110E02069B0B1C6F864
:101080000090FFF789FC074605E00AE1FFF784FCC2
:10109000C01B0228C4D828688007F7D52868616972
:1010A00020F0F80040EAC10028600DE0C6F800809A
:1010B000FFF772FC074604E0FFF76EFCC01B022836
:1010C00023D828688007F7D4207800072CD57948E2
:1010D000A169D9B1C0F80090FFF75EFC074604E0B3
:1010E000FFF75AFCC01B02280FD8686A8007F7D5A3
:1010F00071484FF4FA510068B0FBF1F0009000BF66
:101100000098411E0091FAD20EE080E0C0F8008005
:10111000FFF742FC074604E0FFF73EFCC01B022835
:1011200075D8686A8007F7D42078400760D5E869E9
:101130000027C00008D4E86940F08050E861E86901
:10114000012700F0805000905C480168C90513D465
:101150000168834641F480710160FFF71DFC8246FF
:1011600006E000BFFFF718FCA0EB0A0064284ED889
:10117000DBF80000C005F5D5E06801280AD008B109
:10118000052813D0286A20F001002862286A20F080
:10119000040002E0286A40F001002862E06841F2A1
:1011A000883B98B1FFF7F8FB82460BE0286A40F0D5
:1011B00004002862EEE700BFFFF7EEFBA0EB0A0198
:1011C00059455AD8286A8007F6D50CE0FFF7E4FBAA
:1011D000824605E0FFF7E0FBA0EB0A0159454CD839
:1011E000286A8007F6D41FB1E86920F08050E861D2
:1011F000E06988B36968C1F38101022944D00228FB
:10120000C6F8608004D0FFF7C7FB044638E034E03E
:10121000FFF7C2FB074604E0FFF7BEFBC01B022836
:101220002BD828688001F7D4206AB0F5803F05D11B
:101230006868A16820F4003008436860D4E90801B8
:101240000843696821F4741108436860C6F8609027
:10125000FFF7A2FB044606E025E000BFFFF79CFB7A
:10126000001B022809D828688001F7D51BE000BFC1
:10127000FFF792FB001B022802D90320BDE8F88F7C
:1012800028688001F4D40EE00128F7D06868226A4B
:1012900000F48031914204D1616A00F470108842F8
:1012A00001D00120EAE70020E8E70000001002403A
:1012B00000004242800442423C0000200070004096
:1012C00010B5401EB0F1807F01D3012010BD4FF05A
:1012D000E02460610F21601701F0CAFE0020A061C8
:1012E00007202061002010BD10B590F83C20012A95
:1012F00022D0012280F83C20CA688C6822F4407217
:1013000022434C6822F4806222430C6822F400627B
:1013100022430C6922F4805222434C6922F4005289
:101320002243C969002322F480420A4301684A64C7
:1013300080F83C30002010BD022010BD70B590F840
:101340003C20012A26D0012480F83C40022280F86B
:101350003D2003685A689D6822F070060A6832438F
:101360005A600D4B02689A4208D0B2F1804F05D006
:101370000A4B9A4202D00A4B9A4204D1496825F09E
:1013800080031943916080F83D40002180F83C10B3
:10139000084670BD022070BD002C014000040040D2
:1013A0000008004010B5040003D094F83D0010B1CF
:1013B00007E0012010BD002084F83C00204600F02A
:1013C0001FF8022084F83D00211D206801F094FBE5
:1013D000012084F8460084F83E0084F83F0084F839
:1013E000400084F8410084F8420084F8430084F807
:1013F000440084F8450084F83D00002010BD000042
:1014000000B585B0002100910191029103911A4A23
:1014100001681A48914207D1816941F400618161F4
:10142000806900F4006024E0B1F1804F1AD0144AC2
:10143000914215D1C16941F00201C161C16901F058
:1014400002010491816941F004018161806969466A
:1014500000F004000490402000900A48FFF7A2F931
:1014600005B000BDC16941F00101C161C06900F072
:1014700001000490F4E70000002C0140001002403D
:10148000000400400008014070B5044690F83C009C
:101490000025012817D0012684F83C60022084F83A
:1014A0003D002068826822F0770222F47F42826049
:1014B0000868502838D00DDC20284FD005DC90B3C8
:1014C000102811D14AE0022070BD302846D04028B3
:1014D0000AD13BE060282FD070280DD0B0F5805F96
:1014E00003D0B0F5005F12D0012584F83D600020E4
:1014F00084F83C00284670BDCB68D1E90121206802
:1015000001F043FB2068816841F0770109E0CB6876
:10151000D1E90121206801F038FB2068816841F49D
:1015200080418160E1E719E0CA684968206801F0FC
:10153000E1FB5021206806E0CA684968206801F094
:1015400017FC6021206801F02AFBCEE7CA684968D1
:10155000206801F0CFFB40212068F4E722680146B3
:101560001046F0E72DE9F041054690F83C000026D2
:101570000C46012810D0012085F83C0072B1042AE5
:101580001CD0082A2CD00C2A50D00126002085F827
:101590003C003046BDE8F0810220FBE7D4E90012B0
:1015A000E368286801F0B8FB2868816921F00C0124
:1015B000816128688169A26811430FE0D4E90012B3
:1015C000E368286801F0E6FB2868816921F440613E
:1015D000816128688169A26841EA02218161D5E7B9
:1015E0002868D4E9002C277B036A016A21F4807102
:1015F0000162C16923F4007321F0030141EA0C0187
:1016000021F0F00C39074FF400774CEA116107EA3A
:1016100002221A43C16102622868C16921F00C01EB
:10162000C1612868C169A26811432BE02868D4E928
:101630000021E768036AD0F820C02CF4805CC0F871
:1016400020C0D0F81CC023F400532CF4407C4CEA9A
:10165000012121F4704C4FF6FF7101EA07314FF47C
:10166000005741EA0C0107EA02321A43C1610262E3
:101670002868C16921F44061C1612868C169A26814
:1016800041EA0221C16181E710B5040003D094F85A
:101690003D0010B107E0012010BD002084F83C009F
:1016A000204600F01EF8022084F83D00211D20682D
:1016B00001F022FA012084F8460084F83E0084F804
:1016C0003F0084F8400084F8410084F8420084F828
:1016D000430084F8440084F8450084F83D0000206D
:1016E00010BD704710B5044651B104290DD008292A
:1016F00010D094F8410094F84520012811D10EE053
:1017000094F83E0094F84220F7E794F83F0094F8EC
:101710004320F2E794F8400094F84420EDE7012AD2
:1017200001D0012010BD022019B3042926D00829B8
:1017300029D084F8410084F845000122206801F096
:1017400017FA13492068884208D0B0F1804F05D0BD
:101750001049884202D01049884204D1816801F0C2
:101760000701062903D0016841F001010160002052
:1017700010BD84F83E0084F84200DEE784F83F00A4
:1017800084F84300D9E784F8400084F84400D4E7A3
:10179000002C0140000400400008004030B5044621
:1017A0000D460068002201F0E3F92068016A41F269
:1017B0001112114207D1016A9210114203D101683E
:1017C00021F001010160012245B1042D09D0082D4D
:1017D0000AD004F8412F2271002030BD04F83E2FBA
:1017E000F9E704F83F2FF6E704F8402FF3E700008D
:1017F00010B586B000210091019102910391224B16
:1018000002682249022422489A4210D18A6942F091
:1018100004028A618969039401F00401049181152D
:10182000CDE900146946FEF7BDFF06B010BDB2F168
:10183000804FFAD18A6942F004028A618A6902F013
:10184000040204928A6942F008028A618969039459
:1018500001F0080104914FF40041CDE900146946FC
:10186000FEF7A0FF0820CDE900046946094803946B
:10187000FEF798FF0848416821F4407141F0E061AB
:1018800041F480714160D0E7002C0140001002401B
:1018900000080140000C01400000014070B5044602
:1018A00090F83C0000260D4601280FD0012084F856
:1018B0003C006AB1042A1DD0082A2FD00C2A3FD040
:1018C0000126002084F83C00304670BD022070BD27
:1018D000206801F06DF92068816941F0080181619B
:1018E0002068816921F004018161206881692A6989
:1018F000114311E0206801F083F92068816941F407
:10190000006181612068816921F4806181612068C2
:1019100081692A6941EA02218161D2E7206801F0E8
:101920009BF92068C16941F00801C1612068C16963
:1019300021F00401C1612068C1692A69114311E0E5
:10194000206801F0B5F92068C16941F40061C16106
:101950002068C16921F48061C1612068C1692A6978
:1019600041EA0221C161ACE710B5040003D094F84C
:101970003D0010B107E0012010BD002084F83C00BC
:10198000204600F01EF8022084F83D00211D20684A
:1019900001F0B2F8012084F8460084F83E0084F893
:1019A0003F0084F8400084F8410084F8420084F845
:1019B000430084F8440084F8450084F83D0000208A
:1019C00010BD704710B50446022249B104290ED05B
:1019D000082913D094F84100012816D0012010BD29
:1019E00094F83E000128F9D184F83E200FE094F8E5
:1019F0003F000128F2D184F83F2008E094F840002D
:101A00000128EBD184F8402001E084F84120012234
:101A1000206801F0ADF80F492068884203D1426C7C
:101A200042F4004242642068884208D0B0F1804FFE
:101A300005D00949884202D00849884204D181680A
:101A400001F00701062903D0016841F0010101609E
:101A5000002010BD002C01400004004000080040A0
:101A600030B504460D460068002201F081F8174B9E
:101A700041F2111120688A10984209D1036A0B4281
:101A800006D1036A134203D1436C23F40043436439
:101A90002068036A0B4206D1016A114203D1016832
:101AA00021F00101016001203DB1042D08D0082D75
:101AB00009D084F84100002030BD84F83E00FAE7E8
:101AC00084F83F00F7E784F84000F4E7002C014079
:101AD00070477047F8B5016804460868CA684B69E2
:101AE00010F00F0F4FF000055AD003F0010602F47A
:101AF0009077374365D0C10705D0D10503D5616C18
:101B000041F001016164410705D5D90703D0616C3B
:101B100041F002016164810705D5D90703D0616CEA
:101B200041F004016164010707D502F0200131434F
:101B300003D0616C41F008016164616C00293BD005
:101B4000800604D5900602D5204601F098F9206859
:101B50004069616CC0F3801001F008010143204628
:101B60002BD001F065F920684069400621D5206836
:101B7000143050E8001F21F0400140E80012002A14
:101B8000F5D1E06BA8B16D494163E06BFEF7ACFDA8
:101B9000002811D0E06B416B01B0BDE8F040084770
:101BA00083060ED593060CD52046BDE8F84001F01B
:101BB00066B92046FFF78DFFF8BDFFF78AFF656421
:101BC000F8BD266B2023012E7CD1C6067AD5D60619
:101BD00078D508684868009048694FF002064006CA
:101BE00040D5E16B086840680004000CE8D0A28D85
:101BF0008242E5D9E085886920282DD020680C3004
:101C000050E8001F21F4807140E80012002AF5D14D
:101C10002168143151E8000F20F0010041E8000272
:101C2000002AF5D12068143050E8001F21F040014F
:101C300040E80012002AF5D184F84230256320687C
:101C40000C3050E8001F21F0100140E80012002A7B
:101C5000F5D1E06BFEF724FD6663A08DE18D401A9F
:101C600081B22AE0A08DE18D401A81B2E08D00287A
:101C7000A6D00029A4D022680C3252E8000F20F42C
:101C8000907042E80007002FF5D12068143050E82A
:101C9000002F22F0010240E80027002FF5D184F840
:101CA0004230256320680C3050E8002F22F01002EB
:101CB00040E80023002BF5D166632046FFF708FFBC
:101CC000F8BDFFE705062BD5150629D594F8410088
:101CD0002128F5D1A068B0F5805F01D12069B0B1AD
:101CE000206A411C2162216800784860E08C401E17
:101CF0000004000CE084E3D12068C16821F0800179
:101D0000C1602068C16841F04001C160D8E7206A25
:101D10000088C0F308004860206A801C2062E5E764
:101D20004006CDD55006CBD5CA68204622F04002E9
:101D3000CA6084F8413000F0E4F8C1E7212E0008C1
:101D400070B5040004D094F84100002510B106E0FD
:101D5000012070BD84F84050204600F023F8242074
:101D600084F841002068C16821F40051C160204618
:101D700001F0E6F82068016921F4904101612068D2
:101D8000416921F02A0141612068C16841F4005194
:101D9000C1606564202084F8410084F842006563D6
:101DA000002070BD30B585B00024009401940294E9
:101DB00003940068184988422CD11848816941F47D
:101DC00080418161816901F480410491816941F020
:101DD000040181618069124D00F0040004904FF409
:101DE000007000900220019003200390694628466D
:101DF000FEF7D8FC2815CDE9000469462846029470
:101E0000FEF7D0FC002211462520FEF7BBFF25205F
:101E1000FEF7AAFF05B030BD0038014000100240B7
:101E20000008014090F84230202B01D0022070477A
:101E300021B11AB10023036301F0DEB8012070471D
:101E400070B5214DA5F10803A3F118042978A079F4
:101E50001954401C00F00702A27100215018C61747
:101E600000EB567626F00706861BF65CFF2E09D19E
:101E7000401CC61700EB567626F00706801BC05C98
:101E8000AA2809D0491C0829E8DBBDE870400122D6
:101E90000D490E48FFF7C6BF00200A441118CE179F
:101EA00001EB567626F00706891BC95C2954401CB5
:101EB0000828F3DB044801F077F960700822024932
:101EC000024800F005F8E0E728000020F0050020B7
:101ED00090F84130202B01D00220704779B172B1C7
:101EE00001628284C28400214164212180F8411072
:101EF0000068C16841F08001C16000207047012086
:101F000070477047FEE701684A69D24352050FD413
:101F10006FF480624A61002140F8301F2022427332
:101F20008173026942F0040202610173012070476B
:101F300000207047F8B50446C06A1E460D46174695
:101F4000082807D0012805D010F5803F02D0206B6B
:101F5000122804D12068016841F4807101601346A1
:101F600000224FF001112046009600F05DF840B1CC
:101F700020680068C00502D54FF40070206403207B
:101F8000F8BD2069B0F5804F0ED00620216800EA28
:101F9000D51040F0F000086133463A460B49204620
:101FA00000F08AF878B902E005F0FE0000E0E8B23F
:101FB00021680861054933463A46891F204600F0EA
:101FC0007BF80028DCD00120F8BD000008000100EB
:101FD00070B516460D4604461EE02046FFF793FFF7
:101FE00008B1012070BD681C16D0FEF7D5FC801B1F
:101FF000A84200D885B920684069C04340070BD586
:10200000002044F8300F20216173A073216941F052
:10201000200121612073E4E720684069C043400744
:10202000DBD4002070BD00002DE9F047984617462C
:102030000D460446C1F30746DDF820902AE000BFB4
:10204000B8F1FF3F26D0FEF7A7FCA0EB0901414500
:1020500002D8B8F1000F1DD12068012E16D080697A
:1020600025EA00000004000C12D00020B84211D173
:10207000002044F8300F20216173A073216941F0E2
:102080002001216120730120BDE8F0874069E7E766
:102090000120EBE72068012E0AD0806925EA0000C4
:1020A0000004000C06D00020B842C9D00020EBE7A5
:1020B0004069F3E70120F7E72DE9F0479846164617
:1020C0000D4604464FF000094FF0200AC1F30747C0
:1020D00023E020684069C043400515D420680168AA
:1020E00041F40071016021686FF480604861C4F8B8
:1020F000309084F83DA084F83E90216C41F00401BA
:10210000216484F83C9021E0701C06D0FEF744FC6A
:10211000A0EB0800B04203D816B1012F1FD021E078
:102120002068012F15D0806925EA00000004000C0A
:1021300018D000BF44F8309F84F80DA084F80E90AA
:10214000216941F02001216184F80C900120BDE853
:10215000F087406925EA00000004000CEAD12068FD
:10216000406901E02068806925EA00000004000C55
:10217000AFD1ECE770B516460D4604461EE020468A
:10218000FFF7C1FE08B1012070BD681C16D0FEF734
:1021900003FC801BA84200D885B920684069C04371
:1021A00000060BD5002044F8300F20216173A07386
:1021B000216941F0200121612073E4E72068406932
:1021C000C0430006DBD4002070BD000070B50E4D8A
:1021D0000446002210212846FEF7D9FB01222021C7
:1021E0002846FEF7D4FB012240212846FEF7CFFB0C
:1021F000002280212846FEF7CAFB044801684C6390
:102200000068846370BD0000000C01406005002080
:102210002DE9F04186B000242748009401940294EF
:102220000394816941F020018161816901F02001FD
:102230000491816941F004018161816901F0040127
:102240000491816941F00801816180691B4F00F0B0
:1022500008000490002211213846FEF798FBDFF8B1
:102260006080012250214046FEF791FB00224FF48E
:10227000D0714046FEF78BFB112001250226CDE9E7
:102280000005CDE9024669463846FEF78BFA00960E
:1022900069463846CDE90145FEF784FA4FF4F870F7
:1022A000CDE90005CDE9024669464046FEF77AFAD7
:1022B00006B0BDE8F08100000010024000080140B7
:1022C000000C01400D4810B50B4901600C494160FC
:1022D00000214FF480428160C0E9031241618161B5
:1022E000C1610162FEF75EFB002803D0BDE810402B
:1022F000FEF7B2B910BD000000580040C404002031
:10230000801A060010B596B000240F941094119412
:10231000129413941C2108A81494FEF770F820213D
:102320006846FEF76CF82A482849016040F2CF2140
:10233000C0E9011440F2CF71C0E903148021C0E963
:102340000541FFF72FF808B1FEF786F94FF48050EA
:102350000F900FA91E48FFF797F808B1FEF77CF918
:102360001B48FFF701FB08B1FEF776F9139413A998
:1023700017481494FEF7E2FF08B1FEF76DF96020EC
:1023800008903220CDE909040B940C940D9400229E
:1023900008A90F480E94FFF781FA08B1FEF75CF91F
:1023A00000944FF40050CDE904400294019403944A
:1023B000694607480794FEF797FF08B1FEF74CF906
:1023C0000348FFF715FA16B010BD0000002C0140BD
:1023D0001805002010B58EB00024079408940994C5
:1023E0000A940B941C2168460C94FEF708F82248C6
:1023F0004FF0804101602321C0E901146321C0E94D
:10240000031480218161FEF7CDFF08B1FEF724F9A6
:102410004FF48050079007A91748FFF735F808B127
:10242000FEF71AF91448FFF79FFA08B1FEF714F9FE
:102430000B940BA910480C94FEF780FF08B1FEF72F
:102440000BF96020CDE900040294002269460A4895
:102450000494FFF723FA08B1FEF7FEF80422694658
:102460000548FFF71BFA08B1FEF7F6F80248FFF738
:10247000BFF90EB010BD00006005002010B58AB095
:102480000024284804940594069407940894099419
:102490000094019402942249039401604721C0E909
:1024A00001144FF6FF71C0E9031480218161FEF72A
:1024B00079FF08B1FEF7D0F84FF48050049004A9DA
:1024C0001848FEF7E1FF08B1FEF7C6F81548FFF718
:1024D000DBF808B1FEF7C0F8089408A91148099480
:1024E000FEF72CFF08B1FEF7B7F80120CDE9004058
:1024F0000294002269460B480394FFF733F808B1B1
:10250000FEF7AAF8022000900190042269460548CF
:10251000FFF728F8002801D0FEF79EF80AB010BD9A
:1025200000040040A80500200C4810B50A490160CD
:102530004FF416514160002181600C22C160C0E956
:1025400004128161C161FFF7FBFB002803D0BDE8E5
:102550001040FEF781B810BD00380140F0050020A2
:10256000FEE7FEE710B5AE2000F0DAF8202000F01C
:10257000D7F8102000F0D4F8B02000F0D1F8C8202F
:1025800000F0CEF8002000F0CBF8102000F0C8F8E2
:10259000402000F0C5F8812000F0C2F8DF2000F0F4
:1025A000BFF8A12000F0BCF8A62000F0B9F8A820E0
:1025B00000F0B6F83F2000F0B3F8A42000F0B0F827
:1025C000D32000F0ADF8002000F0AAF8D52000F0EC
:1025D000A7F8F02000F0A4F8D92000F0A1F82220FC
:1025E00000F09EF8DA2000F09BF8122000F098F836
:1025F000DB2000F095F8202000F092F88D2000F00C
:102600008FF8142000F08CF800F008F800F050F972
:10261000BDE81040AF2000F083B800004FF48061A7
:102620000148FDF7CABE0000C10000203CB51C787F
:10263000059D203ACDE900455D68E41D5B78E4081E
:10264000544303FB045200F0CBF83CBD2DE9FF4F8F
:1026500018785978C01DC00800254843001D83B074
:102660001C46174600F0FF0A2AE07819814600F060
:10267000E6FC5FEA000826D000260AE061684846CA
:1026800006FB0A1B42465946FDF726FEF0B1761CB2
:10269000F6B2207AB042F1D810980090E368B8F111
:1026A000010F20D0DDE903012022FFF7BFFFE06822
:1026B000417803980844C0B2039005EB080085B246
:1026C000785D0028D1D107B0BDE8F08F109920784F
:1026D000CDE900016378DDE903010BF1040200F0AC
:1026E0007FF86178E5E77A5DDDE90301FFF79EFF9A
:1026F000E0686D1CADB2417803980844C0B2039005
:10270000DEE7000008B54FF0FF3200920B460246AC
:1027100078210248FEF70AFA08BD0000C404002030
:102720000249487002210148FFF7ECBF0600002073
:102730002DE9FC4180460720CDE9000301F00704A4
:10274000CD08164602FA04F01F46C2B2234641469F
:10275000284600F089F8002C0CD0601EC0B2CDE9EC
:102760000007C4F1080026FA00F2681C0023414665
:1027700000F07AF8BDE8FC812DE9FC4301F0070682
:102780001446CD089846814601F0070106EB080281
:1027900004FA01F0099F082A16D90721CDE900178C
:1027A000C2B233464946284600F05EF808EB060000
:1027B0000938C0B2CDE90007C6F1080024FA00F2DA
:1027C000681C0023494607E0521ED1B2CDE900172C
:1027D000C2B233464946284600F046F8BDE8FC83BD
:1027E0002DE9FF4F82B01D460F989346C70800F0B1
:1027F000070088460026019018E0029800240BEBA1
:10280000060A00EB06090DE004FB05F0109B10F82A
:102810000A2008EBC400C1B209F0FF00FFF788FFEF
:10282000641CE4B2BC42EFD3761CF6B2AE42E4D3F1
:102830000198002815D005FB07F6002408EBC70710
:102840000DE010980090311902981BF801202044E7
:10285000F9B2C0B2019BFFF78FFF641CE4B2AC4237
:10286000EFD306B0BDE8F08FF0B50828DDE90564C8
:1028700019D2802917D20CB1D243D2B2FF25761CCF
:1028800005FA06F6C3F10803084F46EA0204DD40E4
:1028900007EBC017044B785CB2432C43AA4320409B
:1028A0001A7010437854F0BD04000020C1000020CD
:1028B00070B5104D40200024287005F1810600BF3E
:1028C00004F1B000C0B2FFF72BFF0020FFF728FF94
:1028D0001020FFF725FF06EBC4118022681CFDF7CE
:1028E00027FD81210348FFF70DFF641CE4B2082C8B
:1028F000E6D370BD400000207FB5FFF78FFE0024B7
:102900000A212A4B2AA208460094FFF79FFE2B4D6E
:10291000D5E9040100F0FCFD024629A101A8FDF75C
:1029200057FC224B01AA0A215A200094FFF78EFE81
:10293000A878072810D2DFE800F008042925312DF7
:1029400035001A4B1FA2009402E0184B1FA20094FE
:1029500019210A20FFF77AFE2A7819A103A8FDF7AA
:1029600037FC124B1BA22D210A200094FFF76EFEAC
:102970000E4B03AA2D2132200094FFF767FEFFF7CC
:1029800097FF7FBD094B15A20094E1E7074B15A205
:102990000094DDE7054B15A20094D9E7034B15A27F
:1029A0000094D5E7014B15A20094D1E7FC43000841
:1029B00064697374616E63653A000000080000206A
:1029C00025640000465F486176650000465F4E6FF3
:1029D000000000006B65793A000000004C5F486120
:1029E000766500004C5F4E6F00000000525F48614A
:1029F00076650000525F4E6F00000000415F486145
:102A0000766500007047000070B50E4D0446012247
:102A100010212846FDF7BBFF002220212846FDF7A4
:102A2000B6FF002240212846FDF7B1FF0122802198
:102A30002846FDF7ACFF044801684C6300688463D6
:102A400070BD0000000C01406005002070470000D0
:102A500010B50E4C012210212046FDF798FF0022F0
:102A600020212046FDF793FF012240212046FDF75B
:102A70008EFF002280212046FDF789FF04490020B7
:102A80000A6850630968886310BD0000000C0140AB
:102A900060050020FEF710B930B58FB028216846D8
:102AA000FDF7ADFC14210AA8FDF7A9FC01210804DB
:102AB000CDE900100024029402250491CDE90750CD
:102AC0004FF4E01009906846FEF76AFA08B172B652
:102AD000FEE70F20CDE90A054FF48060CDE90C40F8
:102AE00002210AA80E94FEF77FF9002801D072B6E1
:102AF000FEE70FB030BD7047F0B50268194B1A4CB5
:102B00001A4D4FF08047984205D0B84203D0A042FA
:102B100001D0A84203D122F070064A68324398429D
:102B200005D0B84203D0A04201D0A84203D122F47C
:102B30004074CA6822434C6922F08002224302603A
:102B40008A68C2620A688262984201D10969016397
:102B5000012141610169C90703D0016921F0010127
:102B60000161F0BD002C014000040040000800405D
:102B700010B501F01F030121046A99408C430462DF
:102B8000016A9A401143016210BD10B5846842EA9F
:102B9000032224F47F440A432243826010BD8268EA
:102BA00022F070020A4342F0070181607047000082
:102BB00030B5036A026A22F0010202624268846947
:102BC00024F073050C682C4323F002058B682B431B
:102BD0000A4DA8420BD123F00805CB6822F44072BD
:102BE0002B434D6923F0040315438A692A4342604D
:102BF000846149684163036230BD0000002C0140DC
:102C000030B5026A036A23F01003036243688469E3
:102C10000D6824F4E64444EA05248D6822F020027D
:102C200042EA05120B4DA8420ED1CD6822F0800277
:102C300042EA05124D6923F4406343EA85038D6936
:102C400022F0400243EA850343608461496881635E
:102C5000026230BD002C014030B5036A026A22F4E2
:102C6000807202624268C46923F4007324F0730521
:102C70000C682C438D6843EA05230C4DA8420ED105
:102C8000CD6823F4006343EA05234D6922F44052E2
:102C900042EA05128D6923F4806342EA051242601C
:102CA000C4614968C163036230BD0000002C01406B
:102CB00030B5046A026A22F4805202624268C36933
:102CC0000D6823F4E64343EA05238D6824F4005499
:102CD00044EA0534064DA84204D14D6922F48042ED
:102CE00042EA85124260C36149680164046230BDF2
:102CF000002C014010B5036A046A24F00104046248
:102D0000846924F0F00444EA021423F00A020A431E
:102D10008461026210BD000070B5056A046A24F087
:102D20000104046284690F4EB04208D0B0F1804FB4
:102D300005D00D4EB04202D00C4EB04203D124F06B
:102D40000304144301E044F001041A0724F0F004E2
:102D500044EA126225F00A0301F00A011943826174
:102D6000016270BD002C01400004004000080040DA
:102D700010B5036A046A24F010040462846923F025
:102D8000A00324F4704444EA023243EA0111826150
:102D9000016210BD30B5046A056A25F010050562B0
:102DA000856925F4407545EA022222F470454FF604
:102DB000FF7202EA033224F0A0032A43A02404EAAB
:102DC000011119438261016230BD000010B500217C
:102DD0000748FEF745FE04210548FEF741FEBDE821
:102DE000104000224FF480710248FDF7D0BD000072
:102DF00060050020000C014010B500210648FEF7D8
:102E0000E1FD04210448FEF7DDFD0122BDE810408C
:102E100011020248FDF7BBBD60050020000C014017
:102E200010B5406A0021C185C184FEF752FE10BD75
:102E300001680C3151E8002F22F4907241E8002320
:102E4000002BF5D10168143151E8002F22F0010266
:102E500041E80023002BF5D1016B012909D101685C
:102E60000C3151E8002F22F0100241E80023002B22
:102E7000F5D1202180F8421000210163704708B588
:102E800090F84210222901D0022008BD82684FF438
:102E900080539A4201D1016921B1816A9A421BD0C3
:102EA0004AB10AE00268816A5268C2F308020A80E5
:102EB000816A891C08E0026972B10268526802F0F6
:102EC0007F020A70816A491C8162C18D491E090412
:102ED000090CC18503D01BE002685268F1E7016864
:102EE000CA6822F02002CA600168CA6822F48072AF
:102EF000CA6001684A6922F001024A61202180F813
:102F0000421000214163026B012A03D0FEF798FFB3
:102F1000002008BD016301680C3151E8002F22F048
:102F2000100241E80023002BF5D101680A68D2069F
:102F300002D50A6849680091818DFEF7C9FDE7E76F
:102F400070B5044600680169E26821F440511143FC
:102F500001612169A0680843616908432168CA6862
:102F600041F20C639A430243CA6020684169A26936
:102F700021F44071114341611E492068884202D109
:102F8000FDF7D8FF01E0FDF7C5FF00EBC00101EB45
:102F90000012606864218000B2FBF0F3B3FBF1F330
:102FA0006FF018067343B2FBF0F5B2FBF0F605EBD9
:102FB0008305322303EB0515B5FBF1F5B6FBF1F6FE
:102FC00005F0F00505EB0615B2FBF0F6B2FBF0F0EC
:102FD000B0FBF1F06FF01802504306EB800003EBFA
:102FE0000010B0FBF1F0216800F00F002844886069
:102FF00070BD00000038014081628285C2850021D9
:103000004164222180F84210016921B10168CA6837
:1030100042F48072CA6001684A6942F001024A6162
:103020000068C16841F02001C160002070470000C5
:103030000148FEF74FBD0000F0050020FEE70078D4
:10304000010601D4012070470621B1EB501F01D1C8
:10305000022070470E21B1EB101F01D103207047F1
:103060001E21B1EBD00F01D1042070470020704722
:103070000907090E002804DB00F1E02080F80014A5
:10308000704700F00F0000F1E02080F8141D704739
:1030900070B52F4C0020A178072925D2DFE801F078
:1030A0002504512A515053004620FFF78FF8A0689D
:1030B00000F0D4FC4FF47A7148434FF4B47190FBA4
:1030C000F1F061794843FDF75BFBFFF77FFE207964
:1030D00000F04DFAD4E9042300F096FB01D203205E
:1030E00000E00220A070C0B270BDE078FDF7B6FA33
:1030F000A07870BD4620FFF787FC607900F0EAFCFD
:1031000005460121A06800F0F7FD124900F0F6FC29
:10311000114900F0E1FB294600F0F0FC00F0BAFC98
:10312000FDF72EFBFFF752FE207900F020FAD4E9DC
:10313000042300F069FB01D20520D3E70420D1E786
:103140000620A07070BD60790F3060710120F8E733
:103150000800002000007A440000B44310B50F4C72
:1031600000F0F4F800F0A6F800F084FB00220C4B0D
:1031700000F04CFA00221346C4E9040100F08CF977
:1031800003D108490020C4E90401FFF7B5FB20780A
:10319000002802D0FFF77CFFA07010BD08000020BF
:1031A0000000594000388F4070B5404B0178002234
:1031B0001C68FF2908D14178AA2905D18179FE2907
:1031C00002D1C179EF2903D06263186882636BE092
:1031D000C17885780429F7D80E1D082EF4D8344A12
:1031E000072D61D2DFE805F06004184151565B00FD
:1031F000002206E083181B79012B05D0022B07D093
:10320000521C8A42F6DB4FE0FFF7F6FD012070BD4D
:10321000FFF7DCFD022070BD254B0022DB7821E0AA
:1032200084182479062C1CD2DFE804F01B03080D57
:1032300011161846FDF712FA032070BD1846FFF765
:10324000E3FB052070BDFFF703FC072070BD1846A7
:10325000FEF7BCFF062070BD1846FDF7D9F9042023
:1032600070BD521C8A42DBDB1EE0002206E08318A0
:103270001B79012B05D0022B05D0521C8A42F6DBAC
:1032800012E0082070BD092070BD69B10079D070CE
:103290000A2070BD41B1007910710B2070BD19B1C9
:1032A000007950710C2070BD002070BD60050020B9
:1032B0000800002070B5204C012210212046FDF7A7
:1032C00066FB5A21491E0029FCDC00221021204601
:1032D000FDF75DFBFDF760FB00F13204174D184E62
:1032E0000BE0296808690969C0F34000C1F3800157
:1032F00018B111B10120306003E0FDF74DFBA04291
:10330000EFD300F03BF83068012813D10020306083
:103310002868816B406B081A00F0DCFB094900F05B
:10332000EDFB094900F0EAFB00F0A4FABDE87040AB
:1033300000F074B870BD000000080140A80500202E
:103340000000002000002A43BD3786350A4810B52A
:103350000268002151620268C91E116100686FF0A5
:103360000401016100210448FEF7BCF9BDE81040EA
:1033700004210148FEF7B6B9A805002010B50021C8
:103380000448FEF70BFABDE8104004210148FEF79F
:1033900005BA0000A8050020FDF796FCFFF77CFBAE
:1033A000FEF736FFFFF7C0F8FEF7ACFFFFF766F851
:1033B000FFF710F8FEF786FF1420FDF7E1F9FFF79D
:1033C000D1F8082212491348FEF72CFD104C124D7B
:1033D000203C02212846FDF7D5FAB0B90A20FDF7B6
:1033E000CFF902212846FDF7CDFA0028F9D00A20AE
:1033F000FDF7C6F92078C04310F0FF00207002D01E
:10340000FFF7FAFC01E0FFF7E1FCFFF7A7FEE0E7BA
:1034100028000020F00500200008014021F00042B3
:10342000A2F16052B2F5801F01F0004328BFD2F133
:103430007F6C0BD95FEA001C43EAC20242EB50707A
:1034400018BF704728BF20F001007047B2F5801FF9
:10345000BCBF184670474FEA410C1CF5001F02D252
:10346000084600F012BC70B500F07AF9000000893F
:10347000FFF7F6BF4FF00040A0F5800070474910FD
:1034800058BFC1F140415B1058BFC3F140438B426C
:10349000EFF300807047000051EA030C17D41CF5CD
:1034A000801F58BFBCF5801F00F10680994218BFED
:1034B000704708BF9042704707D711F5801F58BF6B
:1034C00013F5801F19D499427047894270471CF543
:1034D000801F08D5BCF5801FF7D58B4218BF7047F9
:1034E00008BF824270474FF4001C1CEB410F38BFED
:1034F0001CEB430F01D28B42704770B500F030F9DE
:10350000922449004FF000514FF08053FFF7B7BFAE
:103510004FEA41034FEA5353A3F58063D3F11E03EF
:10352000C8BFD3F1210C0CDD4FF0004242EAC122AA
:1035300042EA505232FA03FC8CEAE17CACEBE170D7
:103540007047102BC4BF0020704703F5787CBCF196
:10355000FF3F04D06FF0004282EA2100704770B54F
:1035600000F0FEF84992248000207047F2E7B0FA9C
:1035700080F310FA03F10AD0C3F11D0303F5806351
:103580004FEA41504FEA035202EBD12170474FF00E
:103590000000704751EA030C17D41CF5801F58BF78
:1035A000BCF5801F00F10680994218BF704708BF24
:1035B0009042704707D711F5801F58BF13F5801F41
:1035C00019D499427047894270471CF5801F08D56D
:1035D000BCF5801FF7D58B4218BF704708BF8242E9
:1035E00070474FF4001C1CEB410F38BF1CEB430F1E
:1035F00001D28B42704770B500F0B2F892244900B6
:103600004FF000514FF08053FFF739BFDFF848C14A
:1036100070B51CEA111E1EBF1CEA13159EEA0C0FA2
:1036200095EA0C0F00F06F8081EA030423EA4C1343
:103630004EEAD47E21EA4C1141F4801143F4801308
:10364000AE44A1FB024CA0FB0365AEF17F7E3619B0
:1036500055EB0C05A1FB034C4CF10003A0FB021C35
:1036600016EB0C06654153F10003094218BF46F002
:10367000010613F4007F0BD14FEA03314FEA053006
:10368000340341EA155140EA16506FF003020AE094
:103690004FEAC3214FEAC520F40241EA555140EAFE
:1036A00056506FF0020202EB2E4201EB025585EA02
:1036B000CE710AD05FEA440C18BF24F0004450F1E8
:1036C000000041F1000120EAD47040F2FE7C624526
:1036D00000D270BDA84214BF4FF080444FF0404468
:1036E000002E08BF0024BEF1806FA8BFA1F1C04129
:1036F000BDE8704080F282804FF0000001F1C041CF
:1037000001F0004170479EEA0C0F0CEA131518BF38
:1037100095EA0C0F06D04FF0000081EA030E0EF080
:10372000004170BD00F01CF88900013E00F007B8B0
:1037300000F009B84FEA430C5FEA5C5C08D081EA0C
:10374000030100F05BB84FEA410C5FEA5C5CF6D124
:103750004FF00000014970470000FF070000F87FAC
:103760000EF1020E2EF0030E5EF8046B364205D405
:10377000012A43EB030515F5001F12D8012841EB80
:10378000010C1CF5001F0CD80ED14FEAD17C15F5A9
:10379000001F0CEB4C0C0CF1020C08BF4CEBD37C63
:1037A00004E04FF0080C01E04FEAD37C0CEB4C0531
:1037B00026FA05F606F00706B6F1040C06D20EEB63
:1037C000860CBDE870404CF0010C6047DFE80CF05F
:1037D000090B02024FF000414FF00000A1F500215B
:1037E00070BD19461046012851EB010418BFD4F5ED
:1037F000001484BF002001F0004170BD0808A0F54E
:1038000000114FEA3101704753EA010C17D41CF53F
:10381000801F58BFBCF5801F00F106808B4218BF87
:10382000704708BF8242704707D713F5801F58BF03
:1038300011F5801F19D48B4270479B4270471CF5CD
:10384000801F08D5BCF5801FF7D5994218BF704777
:1038500008BF904270474FF4001C1CEB430F38BF69
:103860001CEB410F01D2994270470FB40CBC03BC52
:10387000FFF7C1BE43004FEAD30C4FEA3C0C434074
:103880001FBF40070CF1605113F0FE4F70471CF052
:10389000006F03D100200CF0004170470CF0004392
:1038A00043EA507010B540EACC0000F0A8F900BF20
:1038B000000000924FEA0001FFF7A0BF4FF0004167
:1038C0004FF00000A1F5002170470000014800F012
:1038D000E1B900BF0000C07F4FF47F0C1CEAD0129A
:1038E0001EBF1CEAD11392EA0C0F93EA0C0F00F0F2
:1038F000858090EA010F48BF42F4807240F4000CCA
:1039000041F400002CF07F4120F07F4000B581425F
:10391000A2EB03020FF2081CACEB504EC0F100000A
:103920009EF800E04FEA4E0E00FB0EFC38BF490047
:103930004FEA2C1C02F5FA020CFB0EF34FEACE1EE6
:103940004FEA112C4FEAC1210EEB635E42EB22429B
:103950000EFB0CFC4FEA1C5300FB03114FEA112C29
:103960004FEA01310EFB0CFC4FEADC4C00FB0C1162
:10397000C14228BF09184CEB03335DF804EB10EB90
:10398000410143EBC250B2F57C0F38BF704729D5D7
:1039900012F0F00F1CBF00F1C04000F00040704773
:1039A000008182838485868788898B8C8D8E8F9118
:1039B0009293959697999A9C9D9FA0A2A3A5A7A83C
:1039C000AAACAEB0B2B3B5B7B9BCBEC0C2C5C7C968
:1039D000CCCED1D4D7D9DCDFE2E6E9ECF0F3F7FACC
:1039E000FE0000004FEA400C0CF1807CBCF17E4FE1
:1039F00028BF7047B0F1C04000F047B990EA010F0E
:103A00000CEAD11348BF42F48072624538BF634567
:103A100007D213F47F0F16D080EA010000F00040B7
:103A2000704710B500F0EBF8097EFC3E00F005B8D9
:103A300080EA010000F00040704780EA010000F0D9
:103A4000004000F022B912F47F0F04BF0248704713
:103A500080EA010000F019B90000C07F41000B0EA0
:103A6000D3F19E0208D950F400034FEA032323FA4E
:103A700002F048BF4042704710B500F0C0F800BFE8
:103A800049922480002070476FF0004282EA2000B3
:103A900070470000C10DD1F19E0206DB4FEA002302
:103AA00043F0004323FA02F07047004207D54FEA83
:103AB0004001B1F1FE4F02D24FF00000704710B547
:103AC00000F09DF849922480002070476FEA2000A2
:103AD00070470000B0FA80F310FA03F2C3F19D03BF
:103AE0000AD0D90501EB1220530638BF704700F108
:103AF000010008BF20F00100704700004FF47F0C68
:103B00001CEAD0121EBF1CEAD11392EA0C0F93EAF2
:103B10000C0F00F0478090EA010F48BF42F480721A
:103B20004FF0004C4CEA00204CEA012102EB03026A
:103B3000A0FB0113A2F50002002918BF43F0010306
:103B40005B0028BF4FEA330342EB22425FEA132CAB
:103B50004CEBC2502EBFBCEB436FB2F57C0F7047ED
:103B60004FEA036CBCF1004F08BF20F00100B2F532
:103B70007C0F38BF70470BD582F0FF0212F5803FF3
:103B8000C8BF704700F1C040D8BF00F00040704788
:103B900000F5000C5FEA4C0C48BF7047B0F1C04024
:103BA00000F073B890EA010F0CEAD11348BF42F459
:103BB0008072624538BF634504D280EA010000F09C
:103BC0000040704710B500F01AF800BF8900013EB0
:103BD00000F007B800F009B85FEA410C5FEA1C6C1E
:103BE00008D080EA010000F050B85FEA400C5FEABC
:103BF0001C6CF6D14FF00040A0F5800070470EF12C
:103C0000020E2EF0030E5EF8044B244204D44FEA59
:103C10004102B2F17F4F11D84FEA4003B3F17F4F19
:103C20000CD80ED14FEAD07CB2F17F4F0CEB4C0C8C
:103C30000CF1020C08BF4CEBD17C04E04FF0080CF7
:103C400001E04FEAD17C0CEB4C0324FA03F404F0BE
:103C50000704B4F1040C06D20EEB840CBDE810404E
:103C60004CF0010C6047DFE80CF0070802024FF04F
:103C70000040A0F5800010BD0846420018BFD2F1F8
:103C8000807288BF00F0004010BDFF2141EAD05093
:103C9000C00570470CF00F03092B08BF082000F087
:103CA00051800A2B0BD0082B18BF704708BF1CF09F
:103CB000400F0AD04FF000004FF0000170471CF099
:103CC000400F18BF4FF0004070471CF0100F08D095
:103CD00020F0704300F07F4242EAD3014FEA437084
:103CE000704700F0604021F07F4242EA000201F09C
:103CF0007F4040EA727070474FF0FF0212EAD052E4
:103D00001CBF92F0FF038B42C2BFD14200EBC150F7
:103D10007047002A0AD0002B0BD0002900F0004089
:103D2000A4BF40F0FE4040F40000704700F00040A7
:103D3000704743024FF00B0C18BF4CF0806C7FF4BF
:103D4000C5AD70471CF4801F11D01CF4E02F03D0C8
:103D50006FEACC31490070474FF04050EFF30082DA
:103D600022F0704242EA000282F3008870474FF06E
:103D7000000070470000000000000000000000008C
:103D800000000000000000F8000000000000003308
:103D90003000000000100C06100C060000000000AF
:103DA0000000000040C07840C0784000043F040498
:103DB0003F040400007088FC08300000001820FF59
:103DC000211E0000F008F000E018000000211C0394
:103DD0001E211E0000F00888700000001E21232410
:103DE0001927211010160E0000000000000000002E
:103DF00000000000000000E01804020000000007BE
:103E00001820400000020418E000000000402018C4
:103E100007000000404080F0804040000202010F97
:103E200001020200000000F0000000000101011F7B
:103E300001010100000000000000000080B07000DF
:103E4000000000000000000000000000000101016F
:103E500001010101000000000000000000303000FE
:103E600000000000000000008060180400601806D8
:103E70000100000000E010080810E000000F102012
:103E800020100F00001010F8000000000020203F5C
:103E900020200000007008080888700000302824E6
:103EA0002221300000300888884830000018202087
:103EB00020110E000000C02010F8000000070424AC
:103EC000243F240000F808888808080000192120F1
:103ED00020110E0000E0108888180000000F11204B
:103EE00020110E0000380808C83808000000003F04
:103EF000000000000070880808887000001C222163
:103F000021221C0000E010080810E000000031220F
:103F100022110F00000000C0C000000000000030AF
:103F20003000000000000080000000000000806001
:103F30000000000000008040201008000001020482
:103F40000810200040404040404040000404040469
:103F50000404040000081020408000000020100825
:103F600004020100007048080808F000000000305A
:103F700036010000C030C828E810E00007182724E8
:103F800023140B000000C038E0000000203C230296
:103F90000227382008F8888888700000203F2020F9
:103FA00020110E00C030080808083800071820202B
:103FB0002010080008F808080810E000203F202022
:103FC00020100F0008F88888E8081000203F202003
:103FD0002320180008F88888E8081000203F2000F7
:103FE00003000000C030080808380000071820202F
:103FF000221E020008F808000008F808203F2101EE
:1040000001213F20000808F8080800000020203F98
:104010002020000000000808F8080800C080808008
:104020007F00000008F888C028180800203F200101
:104030002638200008F8080000000000203F20205B
:104040002020300008F8F800F8F80800203F003F72
:10405000003F200008F830C00008F808203F20008A
:1040600007183F00E01008080810E0000F1020209B
:1040700020100F0008F808080808F000203F210170
:1040800001010000E01008080810E0000F182424C7
:1040900038504F0008F8888888887000203F20003A
:1040A000030C3020007088080808380000382021F0
:1040B00021221C00180808F8080818000000203FFA
:1040C0002000000008F808000008F808001F202061
:1040D00020201F000878880000C838080000073832
:1040E0000E010000F80800F80008F800033C070083
:1040F000073C0300081868808068180820302C03EB
:10410000032C30200838C800C83808000000203FC1
:104110002000000010080808C838080020382621B0
:1041200020201800000000FE020202000000007FB4
:1041300040404000000C30C00000000000000001C2
:104140000638C00000020202FE00000000404040AD
:104150007F000000000004020202040000000000D2
:10416000000000000000000000000000808080804F
:104170008080808000020204000000000000000037
:1041800000000000000080808080000000192422D0
:1041900022223F2008F8008080000000003F11200C
:1041A00020110E000000008080800000000E112011
:1041B00020201100000000808088F800000E1120EF
:1041C00020103F200000808080800000001F2222FD
:1041D00022221300008080F0888888180020203F69
:1041E000202000000000808080808000006B94947C
:1041F0009493600008F8008080800000203F210038
:1042000000203F2000809898000000000020203F00
:1042100020200000000000809898000000C08080EE
:10422000807F000008F8000080808000203F24028A
:104230002D302000000808F8000000000020203F7A
:10424000202000008080808080808000203F20002F
:104250003F20003F8080008080800000203F2100C0
:1042600000203F200000808080800000001F202070
:1042700020201F00808000808000000080FFA1209F
:1042800020110E000000008080808000000E1120B0
:1042900020A0FF80808080008080800020203F213F
:1042A00020000100000080808080800000332424F2
:1042B00024241900008080E0808000000000001F9E
:1042C000202000008080000000808000001F20204F
:1042D00020103F20808080000080808000010E3010
:1042E0000806010080800080008080800F300C0371
:1042F0000C300F0000808000808080000020312E74
:104300000E312000808080000080808080818E704F
:104310001806010000808080808080000021302C01
:104320002221300000000000807C0202000000001A
:10433000003F404000000000FF00000000000000BF
:10434000FF0000000002027C800000000040403FAF
:104350000000000000060101020204040000000049
:104360000000000010080000743D0008E6B3A20041
:104370001060020CC000F8888888FF8888A81800A0
:1043800004047C0380601F80432C10284681800039
:10439000E789B900403C10FF1010404848487F486A
:1043A000C8484000020602FF010100020A124282D0
:1043B0007F020200E5BE8B00001088C43310545405
:1043C00054FF54547C101000020100FF0010121220
:1043D00012FF121212100000E58AA8004044C444E3
:1043E0004444401010FF101010F00000103C131057
:1043F00014B840300E014080403F00001010000013
:104400006C4300080400000064430008010202033A
:104410000405060708090A0B0C0D0E0F101000000A
:104420000000000000000102030406070809000064
:1044300000000102030400005844000800000020AE
:1044400040000000280100089844000840000020B7
:10445000580C0000440100080000000000000000AB
:1044600000000046141E00003333334000000000FB
:10447000000000000000F03F00000000000000000D
:10448000000000000000000001000000100000001B
:084490000000000000127A0098
:04000005080000ED02
:00000001FF
